{
  "_format": "hh-sol-artifact-1",
  "contractName": "NFTCollection",
  "sourceName": "contracts/NFTCollection.sol",
  "abi": [
    {
      "inputs": [],
      "stateMutability": "nonpayable",
      "type": "constructor"
    },
    {
      "inputs": [
        {
          "internalType": "address",
          "name": "sender",
          "type": "address"
        },
        {
          "internalType": "uint256",
          "name": "tokenId",
          "type": "uint256"
        },
        {
          "internalType": "address",
          "name": "owner",
          "type": "address"
        }
      ],
      "name": "ERC721IncorrectOwner",
      "type": "error"
    },
    {
      "inputs": [
        {
          "internalType": "address",
          "name": "operator",
          "type": "address"
        },
        {
          "internalType": "uint256",
          "name": "tokenId",
          "type": "uint256"
        }
      ],
      "name": "ERC721InsufficientApproval",
      "type": "error"
    },
    {
      "inputs": [
        {
          "internalType": "address",
          "name": "approver",
          "type": "address"
        }
      ],
      "name": "ERC721InvalidApprover",
      "type": "error"
    },
    {
      "inputs": [
        {
          "internalType": "address",
          "name": "operator",
          "type": "address"
        }
      ],
      "name": "ERC721InvalidOperator",
      "type": "error"
    },
    {
      "inputs": [
        {
          "internalType": "address",
          "name": "owner",
          "type": "address"
        }
      ],
      "name": "ERC721InvalidOwner",
      "type": "error"
    },
    {
      "inputs": [
        {
          "internalType": "address",
          "name": "receiver",
          "type": "address"
        }
      ],
      "name": "ERC721InvalidReceiver",
      "type": "error"
    },
    {
      "inputs": [
        {
          "internalType": "address",
          "name": "sender",
          "type": "address"
        }
      ],
      "name": "ERC721InvalidSender",
      "type": "error"
    },
    {
      "inputs": [
        {
          "internalType": "uint256",
          "name": "tokenId",
          "type": "uint256"
        }
      ],
      "name": "ERC721NonexistentToken",
      "type": "error"
    },
    {
      "inputs": [
        {
          "internalType": "address",
          "name": "owner",
          "type": "address"
        }
      ],
      "name": "OwnableInvalidOwner",
      "type": "error"
    },
    {
      "inputs": [
        {
          "internalType": "address",
          "name": "account",
          "type": "address"
        }
      ],
      "name": "OwnableUnauthorizedAccount",
      "type": "error"
    },
    {
      "anonymous": false,
      "inputs": [
        {
          "indexed": true,
          "internalType": "address",
          "name": "owner",
          "type": "address"
        },
        {
          "indexed": true,
          "internalType": "address",
          "name": "approved",
          "type": "address"
        },
        {
          "indexed": true,
          "internalType": "uint256",
          "name": "tokenId",
          "type": "uint256"
        }
      ],
      "name": "Approval",
      "type": "event"
    },
    {
      "anonymous": false,
      "inputs": [
        {
          "indexed": true,
          "internalType": "address",
          "name": "owner",
          "type": "address"
        },
        {
          "indexed": true,
          "internalType": "address",
          "name": "operator",
          "type": "address"
        },
        {
          "indexed": false,
          "internalType": "bool",
          "name": "approved",
          "type": "bool"
        }
      ],
      "name": "ApprovalForAll",
      "type": "event"
    },
    {
      "anonymous": false,
      "inputs": [
        {
          "indexed": false,
          "internalType": "uint256",
          "name": "_fromTokenId",
          "type": "uint256"
        },
        {
          "indexed": false,
          "internalType": "uint256",
          "name": "_toTokenId",
          "type": "uint256"
        }
      ],
      "name": "BatchMetadataUpdate",
      "type": "event"
    },
    {
      "anonymous": false,
      "inputs": [
        {
          "indexed": false,
          "internalType": "uint256",
          "name": "_tokenId",
          "type": "uint256"
        }
      ],
      "name": "MetadataUpdate",
      "type": "event"
    },
    {
      "anonymous": false,
      "inputs": [
        {
          "indexed": false,
          "internalType": "address",
          "name": "owner",
          "type": "address"
        },
        {
          "indexed": false,
          "internalType": "uint256",
          "name": "tokenId",
          "type": "uint256"
        },
        {
          "indexed": false,
          "internalType": "string",
          "name": "tokenURI",
          "type": "string"
        }
      ],
      "name": "NFTMinted",
      "type": "event"
    },
    {
      "anonymous": false,
      "inputs": [
        {
          "indexed": true,
          "internalType": "address",
          "name": "previousOwner",
          "type": "address"
        },
        {
          "indexed": true,
          "internalType": "address",
          "name": "newOwner",
          "type": "address"
        }
      ],
      "name": "OwnershipTransferred",
      "type": "event"
    },
    {
      "anonymous": false,
      "inputs": [
        {
          "indexed": true,
          "internalType": "address",
          "name": "from",
          "type": "address"
        },
        {
          "indexed": true,
          "internalType": "address",
          "name": "to",
          "type": "address"
        },
        {
          "indexed": true,
          "internalType": "uint256",
          "name": "tokenId",
          "type": "uint256"
        }
      ],
      "name": "Transfer",
      "type": "event"
    },
    {
      "inputs": [
        {
          "internalType": "address",
          "name": "to",
          "type": "address"
        },
        {
          "internalType": "uint256",
          "name": "tokenId",
          "type": "uint256"
        }
      ],
      "name": "approve",
      "outputs": [],
      "stateMutability": "nonpayable",
      "type": "function"
    },
    {
      "inputs": [
        {
          "internalType": "address",
          "name": "owner",
          "type": "address"
        }
      ],
      "name": "balanceOf",
      "outputs": [
        {
          "internalType": "uint256",
          "name": "",
          "type": "uint256"
        }
      ],
      "stateMutability": "view",
      "type": "function"
    },
    {
      "inputs": [
        {
          "internalType": "uint256",
          "name": "tokenId",
          "type": "uint256"
        }
      ],
      "name": "getApproved",
      "outputs": [
        {
          "internalType": "address",
          "name": "",
          "type": "address"
        }
      ],
      "stateMutability": "view",
      "type": "function"
    },
    {
      "inputs": [
        {
          "internalType": "address",
          "name": "owner",
          "type": "address"
        },
        {
          "internalType": "address",
          "name": "operator",
          "type": "address"
        }
      ],
      "name": "isApprovedForAll",
      "outputs": [
        {
          "internalType": "bool",
          "name": "",
          "type": "bool"
        }
      ],
      "stateMutability": "view",
      "type": "function"
    },
    {
      "inputs": [
        {
          "internalType": "string",
          "name": "tokenURI",
          "type": "string"
        }
      ],
      "name": "mintNFT",
      "outputs": [],
      "stateMutability": "payable",
      "type": "function"
    },
    {
      "inputs": [],
      "name": "mintPrice",
      "outputs": [
        {
          "internalType": "uint256",
          "name": "",
          "type": "uint256"
        }
      ],
      "stateMutability": "view",
      "type": "function"
    },
    {
      "inputs": [],
      "name": "name",
      "outputs": [
        {
          "internalType": "string",
          "name": "",
          "type": "string"
        }
      ],
      "stateMutability": "view",
      "type": "function"
    },
    {
      "inputs": [],
      "name": "nextTokenId",
      "outputs": [
        {
          "internalType": "uint256",
          "name": "",
          "type": "uint256"
        }
      ],
      "stateMutability": "view",
      "type": "function"
    },
    {
      "inputs": [],
      "name": "owner",
      "outputs": [
        {
          "internalType": "address",
          "name": "",
          "type": "address"
        }
      ],
      "stateMutability": "view",
      "type": "function"
    },
    {
      "inputs": [
        {
          "internalType": "uint256",
          "name": "tokenId",
          "type": "uint256"
        }
      ],
      "name": "ownerOf",
      "outputs": [
        {
          "internalType": "address",
          "name": "",
          "type": "address"
        }
      ],
      "stateMutability": "view",
      "type": "function"
    },
    {
      "inputs": [],
      "name": "renounceOwnership",
      "outputs": [],
      "stateMutability": "nonpayable",
      "type": "function"
    },
    {
      "inputs": [
        {
          "internalType": "address",
          "name": "from",
          "type": "address"
        },
        {
          "internalType": "address",
          "name": "to",
          "type": "address"
        },
        {
          "internalType": "uint256",
          "name": "tokenId",
          "type": "uint256"
        }
      ],
      "name": "safeTransferFrom",
      "outputs": [],
      "stateMutability": "nonpayable",
      "type": "function"
    },
    {
      "inputs": [
        {
          "internalType": "address",
          "name": "from",
          "type": "address"
        },
        {
          "internalType": "address",
          "name": "to",
          "type": "address"
        },
        {
          "internalType": "uint256",
          "name": "tokenId",
          "type": "uint256"
        },
        {
          "internalType": "bytes",
          "name": "data",
          "type": "bytes"
        }
      ],
      "name": "safeTransferFrom",
      "outputs": [],
      "stateMutability": "nonpayable",
      "type": "function"
    },
    {
      "inputs": [
        {
          "internalType": "address",
          "name": "operator",
          "type": "address"
        },
        {
          "internalType": "bool",
          "name": "approved",
          "type": "bool"
        }
      ],
      "name": "setApprovalForAll",
      "outputs": [],
      "stateMutability": "nonpayable",
      "type": "function"
    },
    {
      "inputs": [
        {
          "internalType": "uint256",
          "name": "newPrice",
          "type": "uint256"
        }
      ],
      "name": "setMintPrice",
      "outputs": [],
      "stateMutability": "nonpayable",
      "type": "function"
    },
    {
      "inputs": [
        {
          "internalType": "bytes4",
          "name": "interfaceId",
          "type": "bytes4"
        }
      ],
      "name": "supportsInterface",
      "outputs": [
        {
          "internalType": "bool",
          "name": "",
          "type": "bool"
        }
      ],
      "stateMutability": "view",
      "type": "function"
    },
    {
      "inputs": [],
      "name": "symbol",
      "outputs": [
        {
          "internalType": "string",
          "name": "",
          "type": "string"
        }
      ],
      "stateMutability": "view",
      "type": "function"
    },
    {
      "inputs": [
        {
          "internalType": "uint256",
          "name": "tokenId",
          "type": "uint256"
        }
      ],
      "name": "tokenURI",
      "outputs": [
        {
          "internalType": "string",
          "name": "",
          "type": "string"
        }
      ],
      "stateMutability": "view",
      "type": "function"
    },
    {
      "inputs": [
        {
          "internalType": "address",
          "name": "from",
          "type": "address"
        },
        {
          "internalType": "address",
          "name": "to",
          "type": "address"
        },
        {
          "internalType": "uint256",
          "name": "tokenId",
          "type": "uint256"
        }
      ],
      "name": "transferFrom",
      "outputs": [],
      "stateMutability": "nonpayable",
      "type": "function"
    },
    {
      "inputs": [
        {
          "internalType": "address",
          "name": "newOwner",
          "type": "address"
        }
      ],
      "name": "transferOwnership",
      "outputs": [],
      "stateMutability": "nonpayable",
      "type": "function"
    },
    {
      "inputs": [],
      "name": "withdrawFunds",
      "outputs": [],
      "stateMutability": "nonpayable",
      "type": "function"
    }
  ],
  "bytecode": "0x6080604052662386f26fc100006009553480156200001c57600080fd5b50336040518060400160405280600e81526020017f4e465420436f6c6c656374696f6e0000000000000000000000000000000000008152506040518060400160405280600481526020017f4e4654430000000000000000000000000000000000000000000000000000000081525081600090816200009b91906200047d565b508060019081620000ad91906200047d565b505050600073ffffffffffffffffffffffffffffffffffffffff168173ffffffffffffffffffffffffffffffffffffffff1603620001255760006040517f1e4fbdf70000000000000000000000000000000000000000000000000000000081526004016200011c9190620005a9565b60405180910390fd5b62000136816200013d60201b60201c565b50620005c6565b6000600760009054906101000a900473ffffffffffffffffffffffffffffffffffffffff16905081600760006101000a81548173ffffffffffffffffffffffffffffffffffffffff021916908373ffffffffffffffffffffffffffffffffffffffff1602179055508173ffffffffffffffffffffffffffffffffffffffff168173ffffffffffffffffffffffffffffffffffffffff167f8be0079c531659141344cd1fd0a4f28419497f9722a3daafe3b4186f6b6457e060405160405180910390a35050565b600081519050919050565b7f4e487b7100000000000000000000000000000000000000000000000000000000600052604160045260246000fd5b7f4e487b7100000000000000000000000000000000000000000000000000000000600052602260045260246000fd5b600060028204905060018216806200028557607f821691505b6020821081036200029b576200029a6200023d565b5b50919050565b60008190508160005260206000209050919050565b60006020601f8301049050919050565b600082821b905092915050565b600060088302620003057fffffffffffffffffffffffffffffffffffffffffffffffffffffffffffffffff82620002c6565b620003118683620002c6565b95508019841693508086168417925050509392505050565b6000819050919050565b6000819050919050565b60006200035e62000358620003528462000329565b62000333565b62000329565b9050919050565b6000819050919050565b6200037a836200033d565b62000392620003898262000365565b848454620002d3565b825550505050565b600090565b620003a96200039a565b620003b68184846200036f565b505050565b5b81811015620003de57620003d26000826200039f565b600181019050620003bc565b5050565b601f8211156200042d57620003f781620002a1565b6200040284620002b6565b8101602085101562000412578190505b6200042a6200042185620002b6565b830182620003bb565b50505b505050565b600082821c905092915050565b6000620004526000198460080262000432565b1980831691505092915050565b60006200046d83836200043f565b9150826002028217905092915050565b620004888262000203565b67ffffffffffffffff811115620004a457620004a36200020e565b5b620004b082546200026c565b620004bd828285620003e2565b600060209050601f831160018114620004f55760008415620004e0578287015190505b620004ec85826200045f565b8655506200055c565b601f1984166200050586620002a1565b60005b828110156200052f5784890151825560018201915060208501945060208101905062000508565b868310156200054f57848901516200054b601f8916826200043f565b8355505b6001600288020188555050505b505050505050565b600073ffffffffffffffffffffffffffffffffffffffff82169050919050565b6000620005918262000564565b9050919050565b620005a38162000584565b82525050565b6000602082019050620005c0600083018462000598565b92915050565b61297580620005d66000396000f3fe60806040526004361061012a5760003560e01c8063715018a6116100ab578063b88d4fde1161006f578063b88d4fde146103cc578063c87b56dd146103f5578063e985e9c514610432578063f2fde38b1461046f578063f4a0a52814610498578063fb37e883146104c15761012a565b8063715018a61461030b57806375794a3c146103225780638da5cb5b1461034d57806395d89b4114610378578063a22cb465146103a35761012a565b806324600fc3116100f257806324600fc31461022657806342842e0e1461023d5780636352211e146102665780636817c76c146102a357806370a08231146102ce5761012a565b806301ffc9a71461012f57806306fdde031461016c578063081812fc14610197578063095ea7b3146101d457806323b872dd146101fd575b600080fd5b34801561013b57600080fd5b5061015660048036038101906101519190611d36565b6104dd565b6040516101639190611d7e565b60405180910390f35b34801561017857600080fd5b5061018161053e565b60405161018e9190611e29565b60405180910390f35b3480156101a357600080fd5b506101be60048036038101906101b99190611e81565b6105d0565b6040516101cb9190611eef565b60405180910390f35b3480156101e057600080fd5b506101fb60048036038101906101f69190611f36565b6105ec565b005b34801561020957600080fd5b50610224600480360381019061021f9190611f76565b610602565b005b34801561023257600080fd5b5061023b610704565b005b34801561024957600080fd5b50610264600480360381019061025f9190611f76565b61075c565b005b34801561027257600080fd5b5061028d60048036038101906102889190611e81565b61077c565b60405161029a9190611eef565b60405180910390f35b3480156102af57600080fd5b506102b861078e565b6040516102c59190611fd8565b60405180910390f35b3480156102da57600080fd5b506102f560048036038101906102f09190611ff3565b610794565b6040516103029190611fd8565b60405180910390f35b34801561031757600080fd5b5061032061084e565b005b34801561032e57600080fd5b50610337610862565b6040516103449190611fd8565b60405180910390f35b34801561035957600080fd5b5061036261086c565b60405161036f9190611eef565b60405180910390f35b34801561038457600080fd5b5061038d610896565b60405161039a9190611e29565b60405180910390f35b3480156103af57600080fd5b506103ca60048036038101906103c5919061204c565b610928565b005b3480156103d857600080fd5b506103f360048036038101906103ee91906121c1565b61093e565b005b34801561040157600080fd5b5061041c60048036038101906104179190611e81565b610963565b6040516104299190611e29565b60405180910390f35b34801561043e57600080fd5b5061045960048036038101906104549190612244565b610a76565b6040516104669190611d7e565b60405180910390f35b34801561047b57600080fd5b5061049660048036038101906104919190611ff3565b610b0a565b005b3480156104a457600080fd5b506104bf60048036038101906104ba9190611e81565b610b90565b005b6104db60048036038101906104d69190612325565b610ba2565b005b6000634906490660e01b7bffffffffffffffffffffffffffffffffffffffffffffffffffffffff1916827bffffffffffffffffffffffffffffffffffffffffffffffffffffffff19161480610537575061053682610c59565b5b9050919050565b60606000805461054d9061239d565b80601f01602080910402602001604051908101604052809291908181526020018280546105799061239d565b80156105c65780601f1061059b576101008083540402835291602001916105c6565b820191906000526020600020905b8154815290600101906020018083116105a957829003601f168201915b5050505050905090565b60006105db82610d3b565b506105e582610dc3565b9050919050565b6105fe82826105f9610e00565b610e08565b5050565b600073ffffffffffffffffffffffffffffffffffffffff168273ffffffffffffffffffffffffffffffffffffffff16036106745760006040517f64a0ae9200000000000000000000000000000000000000000000000000000000815260040161066b9190611eef565b60405180910390fd5b60006106888383610683610e00565b610e1a565b90508373ffffffffffffffffffffffffffffffffffffffff168173ffffffffffffffffffffffffffffffffffffffff16146106fe578382826040517f64283d7b0000000000000000000000000000000000000000000000000000000081526004016106f5939291906123ce565b60405180910390fd5b50505050565b61070c611034565b61071461086c565b73ffffffffffffffffffffffffffffffffffffffff166108fc479081150290604051600060405180830381858888f19350505050158015610759573d6000803e3d6000fd5b50565b6107778383836040518060200160405280600081525061093e565b505050565b600061078782610d3b565b9050919050565b60095481565b60008073ffffffffffffffffffffffffffffffffffffffff168273ffffffffffffffffffffffffffffffffffffffff16036108075760006040517f89c62b640000000000000000000000000000000000000000000000000000000081526004016107fe9190611eef565b60405180910390fd5b600360008373ffffffffffffffffffffffffffffffffffffffff1673ffffffffffffffffffffffffffffffffffffffff168152602001908152602001600020549050919050565b610856611034565b61086060006110bb565b565b6000600854905090565b6000600760009054906101000a900473ffffffffffffffffffffffffffffffffffffffff16905090565b6060600180546108a59061239d565b80601f01602080910402602001604051908101604052809291908181526020018280546108d19061239d565b801561091e5780601f106108f35761010080835404028352916020019161091e565b820191906000526020600020905b81548152906001019060200180831161090157829003601f168201915b5050505050905090565b61093a610933610e00565b8383611181565b5050565b610949848484610602565b61095d610954610e00565b858585856112f0565b50505050565b606061096e82610d3b565b50600060066000848152602001908152602001600020805461098f9061239d565b80601f01602080910402602001604051908101604052809291908181526020018280546109bb9061239d565b8015610a085780601f106109dd57610100808354040283529160200191610a08565b820191906000526020600020905b8154815290600101906020018083116109eb57829003601f168201915b505050505090506000610a196114a1565b90506000815103610a2e578192505050610a71565b600082511115610a63578082604051602001610a4b929190612441565b60405160208183030381529060405292505050610a71565b610a6c846114b8565b925050505b919050565b6000600560008473ffffffffffffffffffffffffffffffffffffffff1673ffffffffffffffffffffffffffffffffffffffff16815260200190815260200160002060008373ffffffffffffffffffffffffffffffffffffffff1673ffffffffffffffffffffffffffffffffffffffff16815260200190815260200160002060009054906101000a900460ff16905092915050565b610b12611034565b600073ffffffffffffffffffffffffffffffffffffffff168173ffffffffffffffffffffffffffffffffffffffff1603610b845760006040517f1e4fbdf7000000000000000000000000000000000000000000000000000000008152600401610b7b9190611eef565b60405180910390fd5b610b8d816110bb565b50565b610b98611034565b8060098190555050565b600954341015610be7576040517f08c379a0000000000000000000000000000000000000000000000000000000008152600401610bde906124b1565b60405180910390fd5b6000600854905060086000815480929190610c0190612500565b9190505550610c103382611521565b610c1a818361153f565b7fd35bb95e09c04b219e35047ce7b7b300e3384264ef84a40456943dbc0fc17c14338284604051610c4d93929190612548565b60405180910390a15050565b60007f80ac58cd000000000000000000000000000000000000000000000000000000007bffffffffffffffffffffffffffffffffffffffffffffffffffffffff1916827bffffffffffffffffffffffffffffffffffffffffffffffffffffffff19161480610d2457507f5b5e139f000000000000000000000000000000000000000000000000000000007bffffffffffffffffffffffffffffffffffffffffffffffffffffffff1916827bffffffffffffffffffffffffffffffffffffffffffffffffffffffff1916145b80610d345750610d338261159b565b5b9050919050565b600080610d4783611605565b9050600073ffffffffffffffffffffffffffffffffffffffff168173ffffffffffffffffffffffffffffffffffffffff1603610dba57826040517f7e273289000000000000000000000000000000000000000000000000000000008152600401610db19190611fd8565b60405180910390fd5b80915050919050565b60006004600083815260200190815260200160002060009054906101000a900473ffffffffffffffffffffffffffffffffffffffff169050919050565b600033905090565b610e158383836001611642565b505050565b600080610e2684611605565b9050600073ffffffffffffffffffffffffffffffffffffffff168373ffffffffffffffffffffffffffffffffffffffff1614610e6857610e67818486611807565b5b600073ffffffffffffffffffffffffffffffffffffffff168173ffffffffffffffffffffffffffffffffffffffff1614610ef957610eaa600085600080611642565b6001600360008373ffffffffffffffffffffffffffffffffffffffff1673ffffffffffffffffffffffffffffffffffffffff168152602001908152602001600020600082825403925050819055505b600073ffffffffffffffffffffffffffffffffffffffff168573ffffffffffffffffffffffffffffffffffffffff1614610f7c576001600360008773ffffffffffffffffffffffffffffffffffffffff1673ffffffffffffffffffffffffffffffffffffffff168152602001908152602001600020600082825401925050819055505b846002600086815260200190815260200160002060006101000a81548173ffffffffffffffffffffffffffffffffffffffff021916908373ffffffffffffffffffffffffffffffffffffffff160217905550838573ffffffffffffffffffffffffffffffffffffffff168273ffffffffffffffffffffffffffffffffffffffff167fddf252ad1be2c89b69c2b068fc378daa952ba7f163c4a11628f55a4df523b3ef60405160405180910390a4809150509392505050565b61103c610e00565b73ffffffffffffffffffffffffffffffffffffffff1661105a61086c565b73ffffffffffffffffffffffffffffffffffffffff16146110b95761107d610e00565b6040517f118cdaa70000000000000000000000000000000000000000000000000000000081526004016110b09190611eef565b60405180910390fd5b565b6000600760009054906101000a900473ffffffffffffffffffffffffffffffffffffffff16905081600760006101000a81548173ffffffffffffffffffffffffffffffffffffffff021916908373ffffffffffffffffffffffffffffffffffffffff1602179055508173ffffffffffffffffffffffffffffffffffffffff168173ffffffffffffffffffffffffffffffffffffffff167f8be0079c531659141344cd1fd0a4f28419497f9722a3daafe3b4186f6b6457e060405160405180910390a35050565b600073ffffffffffffffffffffffffffffffffffffffff168273ffffffffffffffffffffffffffffffffffffffff16036111f257816040517f5b08ba180000000000000000000000000000000000000000000000000000000081526004016111e99190611eef565b60405180910390fd5b80600560008573ffffffffffffffffffffffffffffffffffffffff1673ffffffffffffffffffffffffffffffffffffffff16815260200190815260200160002060008473ffffffffffffffffffffffffffffffffffffffff1673ffffffffffffffffffffffffffffffffffffffff16815260200190815260200160002060006101000a81548160ff0219169083151502179055508173ffffffffffffffffffffffffffffffffffffffff168373ffffffffffffffffffffffffffffffffffffffff167f17307eab39ab6107e8899845ad3d59bd9653f200f220920489ca2b5937696c31836040516112e39190611d7e565b60405180910390a3505050565b60008373ffffffffffffffffffffffffffffffffffffffff163b111561149a578273ffffffffffffffffffffffffffffffffffffffff1663150b7a02868685856040518563ffffffff1660e01b815260040161134f94939291906125db565b6020604051808303816000875af192505050801561138b57506040513d601f19601f82011682018060405250810190611388919061263c565b60015b61140f573d80600081146113bb576040519150601f19603f3d011682016040523d82523d6000602084013e6113c0565b606091505b50600081510361140757836040517f64a0ae920000000000000000000000000000000000000000000000000000000081526004016113fe9190611eef565b60405180910390fd5b805181602001fd5b63150b7a0260e01b7bffffffffffffffffffffffffffffffffffffffffffffffffffffffff1916817bffffffffffffffffffffffffffffffffffffffffffffffffffffffff19161461149857836040517f64a0ae9200000000000000000000000000000000000000000000000000000000815260040161148f9190611eef565b60405180910390fd5b505b5050505050565b606060405180602001604052806000815250905090565b60606114c382610d3b565b5060006114ce6114a1565b905060008151116114ee5760405180602001604052806000815250611519565b806114f8846118cb565b604051602001611509929190612441565b6040516020818303038152906040525b915050919050565b61153b828260405180602001604052806000815250611999565b5050565b8060066000848152602001908152602001600020908161155f9190612815565b507ff8e1a15aba9398e019f0b49df1a4fde98ee17ae345cb5f6b5e2c27f5033e8ce78260405161158f9190611fd8565b60405180910390a15050565b60007f01ffc9a7000000000000000000000000000000000000000000000000000000007bffffffffffffffffffffffffffffffffffffffffffffffffffffffff1916827bffffffffffffffffffffffffffffffffffffffffffffffffffffffff1916149050919050565b60006002600083815260200190815260200160002060009054906101000a900473ffffffffffffffffffffffffffffffffffffffff169050919050565b808061167b5750600073ffffffffffffffffffffffffffffffffffffffff168273ffffffffffffffffffffffffffffffffffffffff1614155b156117af57600061168b84610d3b565b9050600073ffffffffffffffffffffffffffffffffffffffff168373ffffffffffffffffffffffffffffffffffffffff16141580156116f657508273ffffffffffffffffffffffffffffffffffffffff168173ffffffffffffffffffffffffffffffffffffffff1614155b801561170957506117078184610a76565b155b1561174b57826040517fa9fbf51f0000000000000000000000000000000000000000000000000000000081526004016117429190611eef565b60405180910390fd5b81156117ad57838573ffffffffffffffffffffffffffffffffffffffff168273ffffffffffffffffffffffffffffffffffffffff167f8c5be1e5ebec7d5bd14f71427d1e84f3dd0314c0f7b2291e5b200ac8c7c3b92560405160405180910390a45b505b836004600085815260200190815260200160002060006101000a81548173ffffffffffffffffffffffffffffffffffffffff021916908373ffffffffffffffffffffffffffffffffffffffff16021790555050505050565b6118128383836119bd565b6118c657600073ffffffffffffffffffffffffffffffffffffffff168373ffffffffffffffffffffffffffffffffffffffff160361188757806040517f7e27328900000000000000000000000000000000000000000000000000000000815260040161187e9190611fd8565b60405180910390fd5b81816040517f177e802f0000000000000000000000000000000000000000000000000000000081526004016118bd9291906128e7565b60405180910390fd5b505050565b6060600060016118da84611a7e565b01905060008167ffffffffffffffff8111156118f9576118f8612096565b5b6040519080825280601f01601f19166020018201604052801561192b5781602001600182028036833780820191505090505b509050600082602001820190505b60011561198e578080600190039150507f3031323334353637383961626364656600000000000000000000000000000000600a86061a8153600a858161198257611981612910565b5b04945060008503611939575b819350505050919050565b6119a38383611bd1565b6119b86119ae610e00565b60008585856112f0565b505050565b60008073ffffffffffffffffffffffffffffffffffffffff168373ffffffffffffffffffffffffffffffffffffffff1614158015611a7557508273ffffffffffffffffffffffffffffffffffffffff168473ffffffffffffffffffffffffffffffffffffffff161480611a365750611a358484610a76565b5b80611a7457508273ffffffffffffffffffffffffffffffffffffffff16611a5c83610dc3565b73ffffffffffffffffffffffffffffffffffffffff16145b5b90509392505050565b600080600090507a184f03e93ff9f4daa797ed6e38ed64bf6a1f0100000000000000008310611adc577a184f03e93ff9f4daa797ed6e38ed64bf6a1f0100000000000000008381611ad257611ad1612910565b5b0492506040810190505b6d04ee2d6d415b85acef81000000008310611b19576d04ee2d6d415b85acef81000000008381611b0f57611b0e612910565b5b0492506020810190505b662386f26fc100008310611b4857662386f26fc100008381611b3e57611b3d612910565b5b0492506010810190505b6305f5e1008310611b71576305f5e1008381611b6757611b66612910565b5b0492506008810190505b6127108310611b96576127108381611b8c57611b8b612910565b5b0492506004810190505b60648310611bb95760648381611baf57611bae612910565b5b0492506002810190505b600a8310611bc8576001810190505b80915050919050565b600073ffffffffffffffffffffffffffffffffffffffff168273ffffffffffffffffffffffffffffffffffffffff1603611c435760006040517f64a0ae92000000000000000000000000000000000000000000000000000000008152600401611c3a9190611eef565b60405180910390fd5b6000611c5183836000610e1a565b9050600073ffffffffffffffffffffffffffffffffffffffff168173ffffffffffffffffffffffffffffffffffffffff1614611cc55760006040517f73c6ac6e000000000000000000000000000000000000000000000000000000008152600401611cbc9190611eef565b60405180910390fd5b505050565b6000604051905090565b600080fd5b600080fd5b60007fffffffff0000000000000000000000000000000000000000000000000000000082169050919050565b611d1381611cde565b8114611d1e57600080fd5b50565b600081359050611d3081611d0a565b92915050565b600060208284031215611d4c57611d4b611cd4565b5b6000611d5a84828501611d21565b91505092915050565b60008115159050919050565b611d7881611d63565b82525050565b6000602082019050611d936000830184611d6f565b92915050565b600081519050919050565b600082825260208201905092915050565b60005b83811015611dd3578082015181840152602081019050611db8565b60008484015250505050565b6000601f19601f8301169050919050565b6000611dfb82611d99565b611e058185611da4565b9350611e15818560208601611db5565b611e1e81611ddf565b840191505092915050565b60006020820190508181036000830152611e438184611df0565b905092915050565b6000819050919050565b611e5e81611e4b565b8114611e6957600080fd5b50565b600081359050611e7b81611e55565b92915050565b600060208284031215611e9757611e96611cd4565b5b6000611ea584828501611e6c565b91505092915050565b600073ffffffffffffffffffffffffffffffffffffffff82169050919050565b6000611ed982611eae565b9050919050565b611ee981611ece565b82525050565b6000602082019050611f046000830184611ee0565b92915050565b611f1381611ece565b8114611f1e57600080fd5b50565b600081359050611f3081611f0a565b92915050565b60008060408385031215611f4d57611f4c611cd4565b5b6000611f5b85828601611f21565b9250506020611f6c85828601611e6c565b9150509250929050565b600080600060608486031215611f8f57611f8e611cd4565b5b6000611f9d86828701611f21565b9350506020611fae86828701611f21565b9250506040611fbf86828701611e6c565b9150509250925092565b611fd281611e4b565b82525050565b6000602082019050611fed6000830184611fc9565b92915050565b60006020828403121561200957612008611cd4565b5b600061201784828501611f21565b91505092915050565b61202981611d63565b811461203457600080fd5b50565b60008135905061204681612020565b92915050565b6000806040838503121561206357612062611cd4565b5b600061207185828601611f21565b925050602061208285828601612037565b9150509250929050565b600080fd5b600080fd5b7f4e487b7100000000000000000000000000000000000000000000000000000000600052604160045260246000fd5b6120ce82611ddf565b810181811067ffffffffffffffff821117156120ed576120ec612096565b5b80604052505050565b6000612100611cca565b905061210c82826120c5565b919050565b600067ffffffffffffffff82111561212c5761212b612096565b5b61213582611ddf565b9050602081019050919050565b82818337600083830152505050565b600061216461215f84612111565b6120f6565b9050828152602081018484840111156121805761217f612091565b5b61218b848285612142565b509392505050565b600082601f8301126121a8576121a761208c565b5b81356121b8848260208601612151565b91505092915050565b600080600080608085870312156121db576121da611cd4565b5b60006121e987828801611f21565b94505060206121fa87828801611f21565b935050604061220b87828801611e6c565b925050606085013567ffffffffffffffff81111561222c5761222b611cd9565b5b61223887828801612193565b91505092959194509250565b6000806040838503121561225b5761225a611cd4565b5b600061226985828601611f21565b925050602061227a85828601611f21565b9150509250929050565b600067ffffffffffffffff82111561229f5761229e612096565b5b6122a882611ddf565b9050602081019050919050565b60006122c86122c384612284565b6120f6565b9050828152602081018484840111156122e4576122e3612091565b5b6122ef848285612142565b509392505050565b600082601f83011261230c5761230b61208c565b5b813561231c8482602086016122b5565b91505092915050565b60006020828403121561233b5761233a611cd4565b5b600082013567ffffffffffffffff81111561235957612358611cd9565b5b612365848285016122f7565b91505092915050565b7f4e487b7100000000000000000000000000000000000000000000000000000000600052602260045260246000fd5b600060028204905060018216806123b557607f821691505b6020821081036123c8576123c761236e565b5b50919050565b60006060820190506123e36000830186611ee0565b6123f06020830185611fc9565b6123fd6040830184611ee0565b949350505050565b600081905092915050565b600061241b82611d99565b6124258185612405565b9350612435818560208601611db5565b80840191505092915050565b600061244d8285612410565b91506124598284612410565b91508190509392505050565b7f4e6f7420656e6f7567682045544820746f206d696e74204e4654000000000000600082015250565b600061249b601a83611da4565b91506124a682612465565b602082019050919050565b600060208201905081810360008301526124ca8161248e565b9050919050565b7f4e487b7100000000000000000000000000000000000000000000000000000000600052601160045260246000fd5b600061250b82611e4b565b91507fffffffffffffffffffffffffffffffffffffffffffffffffffffffffffffffff820361253d5761253c6124d1565b5b600182019050919050565b600060608201905061255d6000830186611ee0565b61256a6020830185611fc9565b818103604083015261257c8184611df0565b9050949350505050565b600081519050919050565b600082825260208201905092915050565b60006125ad82612586565b6125b78185612591565b93506125c7818560208601611db5565b6125d081611ddf565b840191505092915050565b60006080820190506125f06000830187611ee0565b6125fd6020830186611ee0565b61260a6040830185611fc9565b818103606083015261261c81846125a2565b905095945050505050565b60008151905061263681611d0a565b92915050565b60006020828403121561265257612651611cd4565b5b600061266084828501612627565b91505092915050565b60008190508160005260206000209050919050565b60006020601f8301049050919050565b600082821b905092915050565b6000600883026126cb7fffffffffffffffffffffffffffffffffffffffffffffffffffffffffffffffff8261268e565b6126d5868361268e565b95508019841693508086168417925050509392505050565b6000819050919050565b600061271261270d61270884611e4b565b6126ed565b611e4b565b9050919050565b6000819050919050565b61272c836126f7565b61274061273882612719565b84845461269b565b825550505050565b600090565b612755612748565b612760818484612723565b505050565b5b818110156127845761277960008261274d565b600181019050612766565b5050565b601f8211156127c95761279a81612669565b6127a38461267e565b810160208510156127b2578190505b6127c66127be8561267e565b830182612765565b50505b505050565b600082821c905092915050565b60006127ec600019846008026127ce565b1980831691505092915050565b600061280583836127db565b9150826002028217905092915050565b61281e82611d99565b67ffffffffffffffff81111561283757612836612096565b5b612841825461239d565b61284c828285612788565b600060209050601f83116001811461287f576000841561286d578287015190505b61287785826127f9565b8655506128df565b601f19841661288d86612669565b60005b828110156128b557848901518255600182019150602085019450602081019050612890565b868310156128d257848901516128ce601f8916826127db565b8355505b6001600288020188555050505b505050505050565b60006040820190506128fc6000830185611ee0565b6129096020830184611fc9565b9392505050565b7f4e487b7100000000000000000000000000000000000000000000000000000000600052601260045260246000fdfea2646970667358221220d672d08efc43afaadc922d6f2dba09588526b1c59d0b9f44bd95b838ded8c60b64736f6c63430008140033",
  "linkReferences": {},
  "deployedLinkReferences": {}
}