{
  "_format": "hh-sol-artifact-1",
  "contractName": "EnglishAuction",
  "sourceName": "contracts/EnglishAuction.sol",
  "abi": [
    {
      "inputs": [
        {
          "internalType": "address",
          "name": "_nft",
          "type": "address"
        },
        {
          "internalType": "uint256",
          "name": "_nftId",
          "type": "uint256"
        },
        {
          "internalType": "uint256",
          "name": "_startingBid",
          "type": "uint256"
        },
        {
          "internalType": "uint256",
          "name": "_duration",
          "type": "uint256"
        },
        {
          "internalType": "address",
          "name": "_platformWallet",
          "type": "address"
        }
      ],
      "stateMutability": "nonpayable",
      "type": "constructor"
    },
    {
      "inputs": [
        {
          "internalType": "address",
          "name": "owner",
          "type": "address"
        }
      ],
      "name": "OwnableInvalidOwner",
      "type": "error"
    },
    {
      "inputs": [
        {
          "internalType": "address",
          "name": "account",
          "type": "address"
        }
      ],
      "name": "OwnableUnauthorizedAccount",
      "type": "error"
    },
    {
      "inputs": [],
      "name": "ReentrancyGuardReentrantCall",
      "type": "error"
    },
    {
      "anonymous": false,
      "inputs": [
        {
          "indexed": false,
          "internalType": "address",
          "name": "winner",
          "type": "address"
        },
        {
          "indexed": false,
          "internalType": "uint256",
          "name": "amount",
          "type": "uint256"
        }
      ],
      "name": "AuctionEnded",
      "type": "event"
    },
    {
      "anonymous": false,
      "inputs": [
        {
          "indexed": false,
          "internalType": "uint256",
          "name": "endTime",
          "type": "uint256"
        }
      ],
      "name": "AuctionStarted",
      "type": "event"
    },
    {
      "anonymous": false,
      "inputs": [
        {
          "indexed": true,
          "internalType": "address",
          "name": "bidder",
          "type": "address"
        },
        {
          "indexed": false,
          "internalType": "uint256",
          "name": "amount",
          "type": "uint256"
        }
      ],
      "name": "BidPlaced",
      "type": "event"
    },
    {
      "anonymous": false,
      "inputs": [
        {
          "indexed": true,
          "internalType": "address",
          "name": "previousOwner",
          "type": "address"
        },
        {
          "indexed": true,
          "internalType": "address",
          "name": "newOwner",
          "type": "address"
        }
      ],
      "name": "OwnershipTransferred",
      "type": "event"
    },
    {
      "anonymous": false,
      "inputs": [
        {
          "indexed": false,
          "internalType": "uint256",
          "name": "newFee",
          "type": "uint256"
        }
      ],
      "name": "PlatformFeeChanged",
      "type": "event"
    },
    {
      "inputs": [],
      "name": "auctionEndTime",
      "outputs": [
        {
          "internalType": "uint256",
          "name": "",
          "type": "uint256"
        }
      ],
      "stateMutability": "view",
      "type": "function"
    },
    {
      "inputs": [],
      "name": "auctionEnded",
      "outputs": [
        {
          "internalType": "bool",
          "name": "",
          "type": "bool"
        }
      ],
      "stateMutability": "view",
      "type": "function"
    },
    {
      "inputs": [],
      "name": "bid",
      "outputs": [],
      "stateMutability": "payable",
      "type": "function"
    },
    {
      "inputs": [
        {
          "internalType": "address",
          "name": "",
          "type": "address"
        }
      ],
      "name": "bids",
      "outputs": [
        {
          "internalType": "uint256",
          "name": "",
          "type": "uint256"
        }
      ],
      "stateMutability": "view",
      "type": "function"
    },
    {
      "inputs": [],
      "name": "finalizeAuction",
      "outputs": [],
      "stateMutability": "nonpayable",
      "type": "function"
    },
    {
      "inputs": [],
      "name": "highestBid",
      "outputs": [
        {
          "internalType": "uint256",
          "name": "",
          "type": "uint256"
        }
      ],
      "stateMutability": "view",
      "type": "function"
    },
    {
      "inputs": [],
      "name": "highestBidder",
      "outputs": [
        {
          "internalType": "address",
          "name": "",
          "type": "address"
        }
      ],
      "stateMutability": "view",
      "type": "function"
    },
    {
      "inputs": [],
      "name": "nft",
      "outputs": [
        {
          "internalType": "contract IERC721",
          "name": "",
          "type": "address"
        }
      ],
      "stateMutability": "view",
      "type": "function"
    },
    {
      "inputs": [],
      "name": "nftId",
      "outputs": [
        {
          "internalType": "uint256",
          "name": "",
          "type": "uint256"
        }
      ],
      "stateMutability": "view",
      "type": "function"
    },
    {
      "inputs": [],
      "name": "owner",
      "outputs": [
        {
          "internalType": "address",
          "name": "",
          "type": "address"
        }
      ],
      "stateMutability": "view",
      "type": "function"
    },
    {
      "inputs": [],
      "name": "platformFee",
      "outputs": [
        {
          "internalType": "uint256",
          "name": "",
          "type": "uint256"
        }
      ],
      "stateMutability": "view",
      "type": "function"
    },
    {
      "inputs": [],
      "name": "platformWallet",
      "outputs": [
        {
          "internalType": "address",
          "name": "",
          "type": "address"
        }
      ],
      "stateMutability": "view",
      "type": "function"
    },
    {
      "inputs": [],
      "name": "renounceOwnership",
      "outputs": [],
      "stateMutability": "nonpayable",
      "type": "function"
    },
    {
      "inputs": [],
      "name": "seller",
      "outputs": [
        {
          "internalType": "address",
          "name": "",
          "type": "address"
        }
      ],
      "stateMutability": "view",
      "type": "function"
    },
    {
      "inputs": [
        {
          "internalType": "uint256",
          "name": "newFee",
          "type": "uint256"
        }
      ],
      "name": "setPlatformFee",
      "outputs": [],
      "stateMutability": "nonpayable",
      "type": "function"
    },
    {
      "inputs": [],
      "name": "startingBid",
      "outputs": [
        {
          "internalType": "uint256",
          "name": "",
          "type": "uint256"
        }
      ],
      "stateMutability": "view",
      "type": "function"
    },
    {
      "inputs": [
        {
          "internalType": "address",
          "name": "newOwner",
          "type": "address"
        }
      ],
      "name": "transferOwnership",
      "outputs": [],
      "stateMutability": "nonpayable",
      "type": "function"
    },
    {
      "inputs": [],
      "name": "withdraw",
      "outputs": [],
      "stateMutability": "nonpayable",
      "type": "function"
    }
  ],
  "bytecode": "0x608060405260056009553480156200001657600080fd5b50604051620019cd380380620019cd83398181016040528101906200003c919062000362565b336001600081905550600073ffffffffffffffffffffffffffffffffffffffff168173ffffffffffffffffffffffffffffffffffffffff1603620000ba5760006040517f1e4fbdf7000000000000000000000000000000000000000000000000000000008152600401620000b19190620003fb565b60405180910390fd5b620000cb81620001f760201b60201c565b5033600260006101000a81548173ffffffffffffffffffffffffffffffffffffffff021916908373ffffffffffffffffffffffffffffffffffffffff16021790555084600360006101000a81548173ffffffffffffffffffffffffffffffffffffffff021916908373ffffffffffffffffffffffffffffffffffffffff160217905550836004819055508260088190555081426200016a919062000447565b60078190555080600a60006101000a81548173ffffffffffffffffffffffffffffffffffffffff021916908373ffffffffffffffffffffffffffffffffffffffff1602179055507f1bb96dff6ab5005aff98cdc0cf176bb7d8e0423cb48e02217d35b042cec81e9f600754604051620001e4919062000493565b60405180910390a15050505050620004b0565b6000600160009054906101000a900473ffffffffffffffffffffffffffffffffffffffff16905081600160006101000a81548173ffffffffffffffffffffffffffffffffffffffff021916908373ffffffffffffffffffffffffffffffffffffffff1602179055508173ffffffffffffffffffffffffffffffffffffffff168173ffffffffffffffffffffffffffffffffffffffff167f8be0079c531659141344cd1fd0a4f28419497f9722a3daafe3b4186f6b6457e060405160405180910390a35050565b600080fd5b600073ffffffffffffffffffffffffffffffffffffffff82169050919050565b6000620002ef82620002c2565b9050919050565b6200030181620002e2565b81146200030d57600080fd5b50565b6000815190506200032181620002f6565b92915050565b6000819050919050565b6200033c8162000327565b81146200034857600080fd5b50565b6000815190506200035c8162000331565b92915050565b600080600080600060a08688031215620003815762000380620002bd565b5b6000620003918882890162000310565b9550506020620003a4888289016200034b565b9450506040620003b7888289016200034b565b9350506060620003ca888289016200034b565b9250506080620003dd8882890162000310565b9150509295509295909350565b620003f581620002e2565b82525050565b6000602082019050620004126000830184620003ea565b92915050565b7f4e487b7100000000000000000000000000000000000000000000000000000000600052601160045260246000fd5b6000620004548262000327565b9150620004618362000327565b92508282019050808211156200047c576200047b62000418565b5b92915050565b6200048d8162000327565b82525050565b6000602082019050620004aa600083018462000482565b92915050565b61150d80620004c06000396000f3fe6080604052600436106101095760003560e01c80638643337411610095578063c6bc518211610064578063c6bc518214610304578063d57bde791461032f578063f2fde38b1461035a578063f77282ab14610383578063fa2af9da1461039a57610109565b806386433374146102585780638da5cb5b1461028357806391f90157146102ae578063b9fdd569146102d957610109565b80633ccfd60b116100dc5780633ccfd60b1461019757806347ccca02146101ae5780634b449cba146101d957806362ea82db14610204578063715018a61461024157610109565b806308551a531461010e57806312e8e2c3146101395780631998aeef1461016257806326232a2e1461016c575b600080fd5b34801561011a57600080fd5b506101236103c5565b6040516101309190610eef565b60405180910390f35b34801561014557600080fd5b50610160600480360381019061015b9190610f45565b6103eb565b005b61016a610478565b005b34801561017857600080fd5b50610181610679565b60405161018e9190610f81565b60405180910390f35b3480156101a357600080fd5b506101ac61067f565b005b3480156101ba57600080fd5b506101c36107a5565b6040516101d09190610ffb565b60405180910390f35b3480156101e557600080fd5b506101ee6107cb565b6040516101fb9190610f81565b60405180910390f35b34801561021057600080fd5b5061022b60048036038101906102269190611042565b6107d1565b6040516102389190610f81565b60405180910390f35b34801561024d57600080fd5b506102566107e9565b005b34801561026457600080fd5b5061026d6107fd565b60405161027a919061108a565b60405180910390f35b34801561028f57600080fd5b50610298610810565b6040516102a59190610eef565b60405180910390f35b3480156102ba57600080fd5b506102c361083a565b6040516102d09190610eef565b60405180910390f35b3480156102e557600080fd5b506102ee610860565b6040516102fb9190610f81565b60405180910390f35b34801561031057600080fd5b50610319610866565b6040516103269190610f81565b60405180910390f35b34801561033b57600080fd5b5061034461086c565b6040516103519190610f81565b60405180910390f35b34801561036657600080fd5b50610381600480360381019061037c9190611042565b610872565b005b34801561038f57600080fd5b506103986108f8565b005b3480156103a657600080fd5b506103af610ce3565b6040516103bc9190610eef565b60405180910390f35b600260009054906101000a900473ffffffffffffffffffffffffffffffffffffffff1681565b6103f3610d09565b600a811115610437576040517f08c379a000000000000000000000000000000000000000000000000000000000815260040161042e90611102565b60405180910390fd5b806009819055507f72b05fd7e6e407beabebd17ae121166880efdc19a2a9b08063eafc0c001e470a8160405161046d9190610f81565b60405180910390a150565b610480610d90565b60075442106104c4576040517f08c379a00000000000000000000000000000000000000000000000000000000081526004016104bb9061116e565b60405180910390fd5b6005543411610508576040517f08c379a00000000000000000000000000000000000000000000000000000000081526004016104ff906111da565b60405180910390fd5b600073ffffffffffffffffffffffffffffffffffffffff16600660009054906101000a900473ffffffffffffffffffffffffffffffffffffffff1673ffffffffffffffffffffffffffffffffffffffff16146105d957600554600b6000600660009054906101000a900473ffffffffffffffffffffffffffffffffffffffff1673ffffffffffffffffffffffffffffffffffffffff1673ffffffffffffffffffffffffffffffffffffffff16815260200190815260200160002060008282546105d19190611229565b925050819055505b3460058190555033600660006101000a81548173ffffffffffffffffffffffffffffffffffffffff021916908373ffffffffffffffffffffffffffffffffffffffff1602179055503373ffffffffffffffffffffffffffffffffffffffff167f3fabff0a9c3ecd6814702e247fa9733e5d0aa69e3a38590f92cb18f623a2254d346040516106679190610f81565b60405180910390a2610677610dd6565b565b60095481565b610687610d90565b6000600b60003373ffffffffffffffffffffffffffffffffffffffff1673ffffffffffffffffffffffffffffffffffffffff1681526020019081526020016000205490506000811161070e576040517f08c379a0000000000000000000000000000000000000000000000000000000008152600401610705906112a9565b60405180910390fd5b6000600b60003373ffffffffffffffffffffffffffffffffffffffff1673ffffffffffffffffffffffffffffffffffffffff168152602001908152602001600020819055503373ffffffffffffffffffffffffffffffffffffffff166108fc829081150290604051600060405180830381858888f19350505050158015610799573d6000803e3d6000fd5b50506107a3610dd6565b565b600360009054906101000a900473ffffffffffffffffffffffffffffffffffffffff1681565b60075481565b600b6020528060005260406000206000915090505481565b6107f1610d09565b6107fb6000610de0565b565b600660149054906101000a900460ff1681565b6000600160009054906101000a900473ffffffffffffffffffffffffffffffffffffffff16905090565b600660009054906101000a900473ffffffffffffffffffffffffffffffffffffffff1681565b60085481565b60045481565b60055481565b61087a610d09565b600073ffffffffffffffffffffffffffffffffffffffff168173ffffffffffffffffffffffffffffffffffffffff16036108ec5760006040517f1e4fbdf70000000000000000000000000000000000000000000000000000000081526004016108e39190610eef565b60405180910390fd5b6108f581610de0565b50565b610900610d90565b600754421015610945576040517f08c379a000000000000000000000000000000000000000000000000000000000815260040161093c90611315565b60405180910390fd5b600660149054906101000a900460ff1615610995576040517f08c379a000000000000000000000000000000000000000000000000000000000815260040161098c90611381565b60405180910390fd5b6001600660146101000a81548160ff021916908315150217905550600073ffffffffffffffffffffffffffffffffffffffff16600660009054906101000a900473ffffffffffffffffffffffffffffffffffffffff1673ffffffffffffffffffffffffffffffffffffffff1614610bc65760006064600954600554610a1a91906113a1565b610a249190611412565b9050600081600554610a369190611443565b9050600360009054906101000a900473ffffffffffffffffffffffffffffffffffffffff1673ffffffffffffffffffffffffffffffffffffffff166323b872dd30600660009054906101000a900473ffffffffffffffffffffffffffffffffffffffff166004546040518463ffffffff1660e01b8152600401610abb93929190611477565b600060405180830381600087803b158015610ad557600080fd5b505af1158015610ae9573d6000803e3d6000fd5b50505050600260009054906101000a900473ffffffffffffffffffffffffffffffffffffffff1673ffffffffffffffffffffffffffffffffffffffff166108fc829081150290604051600060405180830381858888f19350505050158015610b55573d6000803e3d6000fd5b50600a60009054906101000a900473ffffffffffffffffffffffffffffffffffffffff1673ffffffffffffffffffffffffffffffffffffffff166108fc839081150290604051600060405180830381858888f19350505050158015610bbe573d6000803e3d6000fd5b505050610c7c565b600360009054906101000a900473ffffffffffffffffffffffffffffffffffffffff1673ffffffffffffffffffffffffffffffffffffffff166323b872dd30600260009054906101000a900473ffffffffffffffffffffffffffffffffffffffff166004546040518463ffffffff1660e01b8152600401610c4993929190611477565b600060405180830381600087803b158015610c6357600080fd5b505af1158015610c77573d6000803e3d6000fd5b505050505b7fdaec4582d5d9595688c8c98545fdd1c696d41c6aeaeb636737e84ed2f5c00eda600660009054906101000a900473ffffffffffffffffffffffffffffffffffffffff16600554604051610cd19291906114ae565b60405180910390a1610ce1610dd6565b565b600a60009054906101000a900473ffffffffffffffffffffffffffffffffffffffff1681565b610d11610ea6565b73ffffffffffffffffffffffffffffffffffffffff16610d2f610810565b73ffffffffffffffffffffffffffffffffffffffff1614610d8e57610d52610ea6565b6040517f118cdaa7000000000000000000000000000000000000000000000000000000008152600401610d859190610eef565b60405180910390fd5b565b600260005403610dcc576040517f3ee5aeb500000000000000000000000000000000000000000000000000000000815260040160405180910390fd5b6002600081905550565b6001600081905550565b6000600160009054906101000a900473ffffffffffffffffffffffffffffffffffffffff16905081600160006101000a81548173ffffffffffffffffffffffffffffffffffffffff021916908373ffffffffffffffffffffffffffffffffffffffff1602179055508173ffffffffffffffffffffffffffffffffffffffff168173ffffffffffffffffffffffffffffffffffffffff167f8be0079c531659141344cd1fd0a4f28419497f9722a3daafe3b4186f6b6457e060405160405180910390a35050565b600033905090565b600073ffffffffffffffffffffffffffffffffffffffff82169050919050565b6000610ed982610eae565b9050919050565b610ee981610ece565b82525050565b6000602082019050610f046000830184610ee0565b92915050565b600080fd5b6000819050919050565b610f2281610f0f565b8114610f2d57600080fd5b50565b600081359050610f3f81610f19565b92915050565b600060208284031215610f5b57610f5a610f0a565b5b6000610f6984828501610f30565b91505092915050565b610f7b81610f0f565b82525050565b6000602082019050610f966000830184610f72565b92915050565b6000819050919050565b6000610fc1610fbc610fb784610eae565b610f9c565b610eae565b9050919050565b6000610fd382610fa6565b9050919050565b6000610fe582610fc8565b9050919050565b610ff581610fda565b82525050565b60006020820190506110106000830184610fec565b92915050565b61101f81610ece565b811461102a57600080fd5b50565b60008135905061103c81611016565b92915050565b60006020828403121561105857611057610f0a565b5b60006110668482850161102d565b91505092915050565b60008115159050919050565b6110848161106f565b82525050565b600060208201905061109f600083018461107b565b92915050565b600082825260208201905092915050565b7f4665652063616e6e6f7420657863656564203130250000000000000000000000600082015250565b60006110ec6015836110a5565b91506110f7826110b6565b602082019050919050565b6000602082019050818103600083015261111b816110df565b9050919050565b7f41756374696f6e2068617320656e646564000000000000000000000000000000600082015250565b60006111586011836110a5565b915061116382611122565b602082019050919050565b600060208201905081810360008301526111878161114b565b9050919050565b7f426964206d757374206265206869676865720000000000000000000000000000600082015250565b60006111c46012836110a5565b91506111cf8261118e565b602082019050919050565b600060208201905081810360008301526111f3816111b7565b9050919050565b7f4e487b7100000000000000000000000000000000000000000000000000000000600052601160045260246000fd5b600061123482610f0f565b915061123f83610f0f565b9250828201905080821115611257576112566111fa565b5b92915050565b7f4e6f2066756e647320746f207769746864726177000000000000000000000000600082015250565b60006112936014836110a5565b915061129e8261125d565b602082019050919050565b600060208201905081810360008301526112c281611286565b9050919050565b7f41756374696f6e206973207374696c6c206f6e676f696e670000000000000000600082015250565b60006112ff6018836110a5565b915061130a826112c9565b602082019050919050565b6000602082019050818103600083015261132e816112f2565b9050919050565b7f41756374696f6e20616c726561647920656e6465640000000000000000000000600082015250565b600061136b6015836110a5565b915061137682611335565b602082019050919050565b6000602082019050818103600083015261139a8161135e565b9050919050565b60006113ac82610f0f565b91506113b783610f0f565b92508282026113c581610f0f565b915082820484148315176113dc576113db6111fa565b5b5092915050565b7f4e487b7100000000000000000000000000000000000000000000000000000000600052601260045260246000fd5b600061141d82610f0f565b915061142883610f0f565b925082611438576114376113e3565b5b828204905092915050565b600061144e82610f0f565b915061145983610f0f565b9250828203905081811115611471576114706111fa565b5b92915050565b600060608201905061148c6000830186610ee0565b6114996020830185610ee0565b6114a66040830184610f72565b949350505050565b60006040820190506114c36000830185610ee0565b6114d06020830184610f72565b939250505056fea2646970667358221220fc9d64b20df52f4ac3d5a984fefcb2cd8a10e5c1bcddd340708932b6490fa67564736f6c63430008140033",
  "linkReferences": {},
  "deployedLinkReferences": {}
}