{
  "_format": "hh-sol-artifact-1",
  "contractName": "NFTCollection",
  "sourceName": "contracts/NFTCollection.sol",
  "abi": [
    {
      "inputs": [],
      "stateMutability": "nonpayable",
      "type": "constructor"
    },
    {
      "inputs": [
        {
          "internalType": "address",
          "name": "sender",
          "type": "address"
        },
        {
          "internalType": "uint256",
          "name": "tokenId",
          "type": "uint256"
        },
        {
          "internalType": "address",
          "name": "owner",
          "type": "address"
        }
      ],
      "name": "ERC721IncorrectOwner",
      "type": "error"
    },
    {
      "inputs": [
        {
          "internalType": "address",
          "name": "operator",
          "type": "address"
        },
        {
          "internalType": "uint256",
          "name": "tokenId",
          "type": "uint256"
        }
      ],
      "name": "ERC721InsufficientApproval",
      "type": "error"
    },
    {
      "inputs": [
        {
          "internalType": "address",
          "name": "approver",
          "type": "address"
        }
      ],
      "name": "ERC721InvalidApprover",
      "type": "error"
    },
    {
      "inputs": [
        {
          "internalType": "address",
          "name": "operator",
          "type": "address"
        }
      ],
      "name": "ERC721InvalidOperator",
      "type": "error"
    },
    {
      "inputs": [
        {
          "internalType": "address",
          "name": "owner",
          "type": "address"
        }
      ],
      "name": "ERC721InvalidOwner",
      "type": "error"
    },
    {
      "inputs": [
        {
          "internalType": "address",
          "name": "receiver",
          "type": "address"
        }
      ],
      "name": "ERC721InvalidReceiver",
      "type": "error"
    },
    {
      "inputs": [
        {
          "internalType": "address",
          "name": "sender",
          "type": "address"
        }
      ],
      "name": "ERC721InvalidSender",
      "type": "error"
    },
    {
      "inputs": [
        {
          "internalType": "uint256",
          "name": "tokenId",
          "type": "uint256"
        }
      ],
      "name": "ERC721NonexistentToken",
      "type": "error"
    },
    {
      "inputs": [
        {
          "internalType": "address",
          "name": "owner",
          "type": "address"
        }
      ],
      "name": "OwnableInvalidOwner",
      "type": "error"
    },
    {
      "inputs": [
        {
          "internalType": "address",
          "name": "account",
          "type": "address"
        }
      ],
      "name": "OwnableUnauthorizedAccount",
      "type": "error"
    },
    {
      "anonymous": false,
      "inputs": [
        {
          "indexed": true,
          "internalType": "address",
          "name": "owner",
          "type": "address"
        },
        {
          "indexed": true,
          "internalType": "address",
          "name": "approved",
          "type": "address"
        },
        {
          "indexed": true,
          "internalType": "uint256",
          "name": "tokenId",
          "type": "uint256"
        }
      ],
      "name": "Approval",
      "type": "event"
    },
    {
      "anonymous": false,
      "inputs": [
        {
          "indexed": true,
          "internalType": "address",
          "name": "owner",
          "type": "address"
        },
        {
          "indexed": true,
          "internalType": "address",
          "name": "operator",
          "type": "address"
        },
        {
          "indexed": false,
          "internalType": "bool",
          "name": "approved",
          "type": "bool"
        }
      ],
      "name": "ApprovalForAll",
      "type": "event"
    },
    {
      "anonymous": false,
      "inputs": [
        {
          "indexed": false,
          "internalType": "uint256",
          "name": "_fromTokenId",
          "type": "uint256"
        },
        {
          "indexed": false,
          "internalType": "uint256",
          "name": "_toTokenId",
          "type": "uint256"
        }
      ],
      "name": "BatchMetadataUpdate",
      "type": "event"
    },
    {
      "anonymous": false,
      "inputs": [
        {
          "indexed": false,
          "internalType": "uint256",
          "name": "_tokenId",
          "type": "uint256"
        }
      ],
      "name": "MetadataUpdate",
      "type": "event"
    },
    {
      "anonymous": false,
      "inputs": [
        {
          "indexed": false,
          "internalType": "address",
          "name": "owner",
          "type": "address"
        },
        {
          "indexed": false,
          "internalType": "uint256",
          "name": "tokenId",
          "type": "uint256"
        },
        {
          "indexed": false,
          "internalType": "string",
          "name": "tokenURI",
          "type": "string"
        }
      ],
      "name": "NFTMinted",
      "type": "event"
    },
    {
      "anonymous": false,
      "inputs": [
        {
          "indexed": true,
          "internalType": "address",
          "name": "previousOwner",
          "type": "address"
        },
        {
          "indexed": true,
          "internalType": "address",
          "name": "newOwner",
          "type": "address"
        }
      ],
      "name": "OwnershipTransferred",
      "type": "event"
    },
    {
      "anonymous": false,
      "inputs": [
        {
          "indexed": true,
          "internalType": "address",
          "name": "from",
          "type": "address"
        },
        {
          "indexed": true,
          "internalType": "address",
          "name": "to",
          "type": "address"
        },
        {
          "indexed": true,
          "internalType": "uint256",
          "name": "tokenId",
          "type": "uint256"
        }
      ],
      "name": "Transfer",
      "type": "event"
    },
    {
      "inputs": [
        {
          "internalType": "address",
          "name": "to",
          "type": "address"
        },
        {
          "internalType": "uint256",
          "name": "tokenId",
          "type": "uint256"
        }
      ],
      "name": "approve",
      "outputs": [],
      "stateMutability": "nonpayable",
      "type": "function"
    },
    {
      "inputs": [
        {
          "internalType": "address",
          "name": "owner",
          "type": "address"
        }
      ],
      "name": "balanceOf",
      "outputs": [
        {
          "internalType": "uint256",
          "name": "",
          "type": "uint256"
        }
      ],
      "stateMutability": "view",
      "type": "function"
    },
    {
      "inputs": [
        {
          "internalType": "uint256",
          "name": "tokenId",
          "type": "uint256"
        }
      ],
      "name": "getApproved",
      "outputs": [
        {
          "internalType": "address",
          "name": "",
          "type": "address"
        }
      ],
      "stateMutability": "view",
      "type": "function"
    },
    {
      "inputs": [
        {
          "internalType": "address",
          "name": "owner",
          "type": "address"
        },
        {
          "internalType": "address",
          "name": "operator",
          "type": "address"
        }
      ],
      "name": "isApprovedForAll",
      "outputs": [
        {
          "internalType": "bool",
          "name": "",
          "type": "bool"
        }
      ],
      "stateMutability": "view",
      "type": "function"
    },
    {
      "inputs": [
        {
          "internalType": "string",
          "name": "tokenURI",
          "type": "string"
        }
      ],
      "name": "mintNFT",
      "outputs": [],
      "stateMutability": "payable",
      "type": "function"
    },
    {
      "inputs": [],
      "name": "mintPrice",
      "outputs": [
        {
          "internalType": "uint256",
          "name": "",
          "type": "uint256"
        }
      ],
      "stateMutability": "view",
      "type": "function"
    },
    {
      "inputs": [],
      "name": "name",
      "outputs": [
        {
          "internalType": "string",
          "name": "",
          "type": "string"
        }
      ],
      "stateMutability": "view",
      "type": "function"
    },
    {
      "inputs": [],
      "name": "owner",
      "outputs": [
        {
          "internalType": "address",
          "name": "",
          "type": "address"
        }
      ],
      "stateMutability": "view",
      "type": "function"
    },
    {
      "inputs": [
        {
          "internalType": "uint256",
          "name": "tokenId",
          "type": "uint256"
        }
      ],
      "name": "ownerOf",
      "outputs": [
        {
          "internalType": "address",
          "name": "",
          "type": "address"
        }
      ],
      "stateMutability": "view",
      "type": "function"
    },
    {
      "inputs": [],
      "name": "renounceOwnership",
      "outputs": [],
      "stateMutability": "nonpayable",
      "type": "function"
    },
    {
      "inputs": [
        {
          "internalType": "address",
          "name": "from",
          "type": "address"
        },
        {
          "internalType": "address",
          "name": "to",
          "type": "address"
        },
        {
          "internalType": "uint256",
          "name": "tokenId",
          "type": "uint256"
        }
      ],
      "name": "safeTransferFrom",
      "outputs": [],
      "stateMutability": "nonpayable",
      "type": "function"
    },
    {
      "inputs": [
        {
          "internalType": "address",
          "name": "from",
          "type": "address"
        },
        {
          "internalType": "address",
          "name": "to",
          "type": "address"
        },
        {
          "internalType": "uint256",
          "name": "tokenId",
          "type": "uint256"
        },
        {
          "internalType": "bytes",
          "name": "data",
          "type": "bytes"
        }
      ],
      "name": "safeTransferFrom",
      "outputs": [],
      "stateMutability": "nonpayable",
      "type": "function"
    },
    {
      "inputs": [
        {
          "internalType": "address",
          "name": "operator",
          "type": "address"
        },
        {
          "internalType": "bool",
          "name": "approved",
          "type": "bool"
        }
      ],
      "name": "setApprovalForAll",
      "outputs": [],
      "stateMutability": "nonpayable",
      "type": "function"
    },
    {
      "inputs": [
        {
          "internalType": "uint256",
          "name": "newPrice",
          "type": "uint256"
        }
      ],
      "name": "setMintPrice",
      "outputs": [],
      "stateMutability": "nonpayable",
      "type": "function"
    },
    {
      "inputs": [
        {
          "internalType": "bytes4",
          "name": "interfaceId",
          "type": "bytes4"
        }
      ],
      "name": "supportsInterface",
      "outputs": [
        {
          "internalType": "bool",
          "name": "",
          "type": "bool"
        }
      ],
      "stateMutability": "view",
      "type": "function"
    },
    {
      "inputs": [],
      "name": "symbol",
      "outputs": [
        {
          "internalType": "string",
          "name": "",
          "type": "string"
        }
      ],
      "stateMutability": "view",
      "type": "function"
    },
    {
      "inputs": [
        {
          "internalType": "uint256",
          "name": "tokenId",
          "type": "uint256"
        }
      ],
      "name": "tokenURI",
      "outputs": [
        {
          "internalType": "string",
          "name": "",
          "type": "string"
        }
      ],
      "stateMutability": "view",
      "type": "function"
    },
    {
      "inputs": [
        {
          "internalType": "address",
          "name": "from",
          "type": "address"
        },
        {
          "internalType": "address",
          "name": "to",
          "type": "address"
        },
        {
          "internalType": "uint256",
          "name": "tokenId",
          "type": "uint256"
        }
      ],
      "name": "transferFrom",
      "outputs": [],
      "stateMutability": "nonpayable",
      "type": "function"
    },
    {
      "inputs": [
        {
          "internalType": "address",
          "name": "newOwner",
          "type": "address"
        }
      ],
      "name": "transferOwnership",
      "outputs": [],
      "stateMutability": "nonpayable",
      "type": "function"
    },
    {
      "inputs": [],
      "name": "withdrawFunds",
      "outputs": [],
      "stateMutability": "nonpayable",
      "type": "function"
    }
  ],
  "bytecode": "0x6080604052662386f26fc100006009553480156200001c57600080fd5b50336040518060400160405280600e81526020017f4e465420436f6c6c656374696f6e0000000000000000000000000000000000008152506040518060400160405280600481526020017f4e4654430000000000000000000000000000000000000000000000000000000081525081600090816200009b91906200047d565b508060019081620000ad91906200047d565b505050600073ffffffffffffffffffffffffffffffffffffffff168173ffffffffffffffffffffffffffffffffffffffff1603620001255760006040517f1e4fbdf70000000000000000000000000000000000000000000000000000000081526004016200011c9190620005a9565b60405180910390fd5b62000136816200013d60201b60201c565b50620005c6565b6000600760009054906101000a900473ffffffffffffffffffffffffffffffffffffffff16905081600760006101000a81548173ffffffffffffffffffffffffffffffffffffffff021916908373ffffffffffffffffffffffffffffffffffffffff1602179055508173ffffffffffffffffffffffffffffffffffffffff168173ffffffffffffffffffffffffffffffffffffffff167f8be0079c531659141344cd1fd0a4f28419497f9722a3daafe3b4186f6b6457e060405160405180910390a35050565b600081519050919050565b7f4e487b7100000000000000000000000000000000000000000000000000000000600052604160045260246000fd5b7f4e487b7100000000000000000000000000000000000000000000000000000000600052602260045260246000fd5b600060028204905060018216806200028557607f821691505b6020821081036200029b576200029a6200023d565b5b50919050565b60008190508160005260206000209050919050565b60006020601f8301049050919050565b600082821b905092915050565b600060088302620003057fffffffffffffffffffffffffffffffffffffffffffffffffffffffffffffffff82620002c6565b620003118683620002c6565b95508019841693508086168417925050509392505050565b6000819050919050565b6000819050919050565b60006200035e62000358620003528462000329565b62000333565b62000329565b9050919050565b6000819050919050565b6200037a836200033d565b62000392620003898262000365565b848454620002d3565b825550505050565b600090565b620003a96200039a565b620003b68184846200036f565b505050565b5b81811015620003de57620003d26000826200039f565b600181019050620003bc565b5050565b601f8211156200042d57620003f781620002a1565b6200040284620002b6565b8101602085101562000412578190505b6200042a6200042185620002b6565b830182620003bb565b50505b505050565b600082821c905092915050565b6000620004526000198460080262000432565b1980831691505092915050565b60006200046d83836200043f565b9150826002028217905092915050565b620004888262000203565b67ffffffffffffffff811115620004a457620004a36200020e565b5b620004b082546200026c565b620004bd828285620003e2565b600060209050601f831160018114620004f55760008415620004e0578287015190505b620004ec85826200045f565b8655506200055c565b601f1984166200050586620002a1565b60005b828110156200052f5784890151825560018201915060208501945060208101905062000508565b868310156200054f57848901516200054b601f8916826200043f565b8355505b6001600288020188555050505b505050505050565b600073ffffffffffffffffffffffffffffffffffffffff82169050919050565b6000620005918262000564565b9050919050565b620005a38162000584565b82525050565b6000602082019050620005c0600083018462000598565b92915050565b61293580620005d66000396000f3fe60806040526004361061011f5760003560e01c8063715018a6116100a0578063c87b56dd11610064578063c87b56dd146103bf578063e985e9c5146103fc578063f2fde38b14610439578063f4a0a52814610462578063fb37e8831461048b5761011f565b8063715018a6146103005780638da5cb5b1461031757806395d89b4114610342578063a22cb4651461036d578063b88d4fde146103965761011f565b806324600fc3116100e757806324600fc31461021b57806342842e0e146102325780636352211e1461025b5780636817c76c1461029857806370a08231146102c35761011f565b806301ffc9a71461012457806306fdde0314610161578063081812fc1461018c578063095ea7b3146101c957806323b872dd146101f2575b600080fd5b34801561013057600080fd5b5061014b60048036038101906101469190611cf6565b6104a7565b6040516101589190611d3e565b60405180910390f35b34801561016d57600080fd5b50610176610508565b6040516101839190611de9565b60405180910390f35b34801561019857600080fd5b506101b360048036038101906101ae9190611e41565b61059a565b6040516101c09190611eaf565b60405180910390f35b3480156101d557600080fd5b506101f060048036038101906101eb9190611ef6565b6105b6565b005b3480156101fe57600080fd5b5061021960048036038101906102149190611f36565b6105cc565b005b34801561022757600080fd5b506102306106ce565b005b34801561023e57600080fd5b5061025960048036038101906102549190611f36565b610726565b005b34801561026757600080fd5b50610282600480360381019061027d9190611e41565b610746565b60405161028f9190611eaf565b60405180910390f35b3480156102a457600080fd5b506102ad610758565b6040516102ba9190611f98565b60405180910390f35b3480156102cf57600080fd5b506102ea60048036038101906102e59190611fb3565b61075e565b6040516102f79190611f98565b60405180910390f35b34801561030c57600080fd5b50610315610818565b005b34801561032357600080fd5b5061032c61082c565b6040516103399190611eaf565b60405180910390f35b34801561034e57600080fd5b50610357610856565b6040516103649190611de9565b60405180910390f35b34801561037957600080fd5b50610394600480360381019061038f919061200c565b6108e8565b005b3480156103a257600080fd5b506103bd60048036038101906103b89190612181565b6108fe565b005b3480156103cb57600080fd5b506103e660048036038101906103e19190611e41565b610923565b6040516103f39190611de9565b60405180910390f35b34801561040857600080fd5b50610423600480360381019061041e9190612204565b610a36565b6040516104309190611d3e565b60405180910390f35b34801561044557600080fd5b50610460600480360381019061045b9190611fb3565b610aca565b005b34801561046e57600080fd5b5061048960048036038101906104849190611e41565b610b50565b005b6104a560048036038101906104a091906122e5565b610b62565b005b6000634906490660e01b7bffffffffffffffffffffffffffffffffffffffffffffffffffffffff1916827bffffffffffffffffffffffffffffffffffffffffffffffffffffffff19161480610501575061050082610c19565b5b9050919050565b6060600080546105179061235d565b80601f01602080910402602001604051908101604052809291908181526020018280546105439061235d565b80156105905780601f1061056557610100808354040283529160200191610590565b820191906000526020600020905b81548152906001019060200180831161057357829003601f168201915b5050505050905090565b60006105a582610cfb565b506105af82610d83565b9050919050565b6105c882826105c3610dc0565b610dc8565b5050565b600073ffffffffffffffffffffffffffffffffffffffff168273ffffffffffffffffffffffffffffffffffffffff160361063e5760006040517f64a0ae920000000000000000000000000000000000000000000000000000000081526004016106359190611eaf565b60405180910390fd5b6000610652838361064d610dc0565b610dda565b90508373ffffffffffffffffffffffffffffffffffffffff168173ffffffffffffffffffffffffffffffffffffffff16146106c8578382826040517f64283d7b0000000000000000000000000000000000000000000000000000000081526004016106bf9392919061238e565b60405180910390fd5b50505050565b6106d6610ff4565b6106de61082c565b73ffffffffffffffffffffffffffffffffffffffff166108fc479081150290604051600060405180830381858888f19350505050158015610723573d6000803e3d6000fd5b50565b610741838383604051806020016040528060008152506108fe565b505050565b600061075182610cfb565b9050919050565b60095481565b60008073ffffffffffffffffffffffffffffffffffffffff168273ffffffffffffffffffffffffffffffffffffffff16036107d15760006040517f89c62b640000000000000000000000000000000000000000000000000000000081526004016107c89190611eaf565b60405180910390fd5b600360008373ffffffffffffffffffffffffffffffffffffffff1673ffffffffffffffffffffffffffffffffffffffff168152602001908152602001600020549050919050565b610820610ff4565b61082a600061107b565b565b6000600760009054906101000a900473ffffffffffffffffffffffffffffffffffffffff16905090565b6060600180546108659061235d565b80601f01602080910402602001604051908101604052809291908181526020018280546108919061235d565b80156108de5780601f106108b3576101008083540402835291602001916108de565b820191906000526020600020905b8154815290600101906020018083116108c157829003601f168201915b5050505050905090565b6108fa6108f3610dc0565b8383611141565b5050565b6109098484846105cc565b61091d610914610dc0565b858585856112b0565b50505050565b606061092e82610cfb565b50600060066000848152602001908152602001600020805461094f9061235d565b80601f016020809104026020016040519081016040528092919081815260200182805461097b9061235d565b80156109c85780601f1061099d576101008083540402835291602001916109c8565b820191906000526020600020905b8154815290600101906020018083116109ab57829003601f168201915b5050505050905060006109d9611461565b905060008151036109ee578192505050610a31565b600082511115610a23578082604051602001610a0b929190612401565b60405160208183030381529060405292505050610a31565b610a2c84611478565b925050505b919050565b6000600560008473ffffffffffffffffffffffffffffffffffffffff1673ffffffffffffffffffffffffffffffffffffffff16815260200190815260200160002060008373ffffffffffffffffffffffffffffffffffffffff1673ffffffffffffffffffffffffffffffffffffffff16815260200190815260200160002060009054906101000a900460ff16905092915050565b610ad2610ff4565b600073ffffffffffffffffffffffffffffffffffffffff168173ffffffffffffffffffffffffffffffffffffffff1603610b445760006040517f1e4fbdf7000000000000000000000000000000000000000000000000000000008152600401610b3b9190611eaf565b60405180910390fd5b610b4d8161107b565b50565b610b58610ff4565b8060098190555050565b600954341015610ba7576040517f08c379a0000000000000000000000000000000000000000000000000000000008152600401610b9e90612471565b60405180910390fd5b6000600854905060086000815480929190610bc1906124c0565b9190505550610bd033826114e1565b610bda81836114ff565b7fd35bb95e09c04b219e35047ce7b7b300e3384264ef84a40456943dbc0fc17c14338284604051610c0d93929190612508565b60405180910390a15050565b60007f80ac58cd000000000000000000000000000000000000000000000000000000007bffffffffffffffffffffffffffffffffffffffffffffffffffffffff1916827bffffffffffffffffffffffffffffffffffffffffffffffffffffffff19161480610ce457507f5b5e139f000000000000000000000000000000000000000000000000000000007bffffffffffffffffffffffffffffffffffffffffffffffffffffffff1916827bffffffffffffffffffffffffffffffffffffffffffffffffffffffff1916145b80610cf45750610cf38261155b565b5b9050919050565b600080610d07836115c5565b9050600073ffffffffffffffffffffffffffffffffffffffff168173ffffffffffffffffffffffffffffffffffffffff1603610d7a57826040517f7e273289000000000000000000000000000000000000000000000000000000008152600401610d719190611f98565b60405180910390fd5b80915050919050565b60006004600083815260200190815260200160002060009054906101000a900473ffffffffffffffffffffffffffffffffffffffff169050919050565b600033905090565b610dd58383836001611602565b505050565b600080610de6846115c5565b9050600073ffffffffffffffffffffffffffffffffffffffff168373ffffffffffffffffffffffffffffffffffffffff1614610e2857610e278184866117c7565b5b600073ffffffffffffffffffffffffffffffffffffffff168173ffffffffffffffffffffffffffffffffffffffff1614610eb957610e6a600085600080611602565b6001600360008373ffffffffffffffffffffffffffffffffffffffff1673ffffffffffffffffffffffffffffffffffffffff168152602001908152602001600020600082825403925050819055505b600073ffffffffffffffffffffffffffffffffffffffff168573ffffffffffffffffffffffffffffffffffffffff1614610f3c576001600360008773ffffffffffffffffffffffffffffffffffffffff1673ffffffffffffffffffffffffffffffffffffffff168152602001908152602001600020600082825401925050819055505b846002600086815260200190815260200160002060006101000a81548173ffffffffffffffffffffffffffffffffffffffff021916908373ffffffffffffffffffffffffffffffffffffffff160217905550838573ffffffffffffffffffffffffffffffffffffffff168273ffffffffffffffffffffffffffffffffffffffff167fddf252ad1be2c89b69c2b068fc378daa952ba7f163c4a11628f55a4df523b3ef60405160405180910390a4809150509392505050565b610ffc610dc0565b73ffffffffffffffffffffffffffffffffffffffff1661101a61082c565b73ffffffffffffffffffffffffffffffffffffffff16146110795761103d610dc0565b6040517f118cdaa70000000000000000000000000000000000000000000000000000000081526004016110709190611eaf565b60405180910390fd5b565b6000600760009054906101000a900473ffffffffffffffffffffffffffffffffffffffff16905081600760006101000a81548173ffffffffffffffffffffffffffffffffffffffff021916908373ffffffffffffffffffffffffffffffffffffffff1602179055508173ffffffffffffffffffffffffffffffffffffffff168173ffffffffffffffffffffffffffffffffffffffff167f8be0079c531659141344cd1fd0a4f28419497f9722a3daafe3b4186f6b6457e060405160405180910390a35050565b600073ffffffffffffffffffffffffffffffffffffffff168273ffffffffffffffffffffffffffffffffffffffff16036111b257816040517f5b08ba180000000000000000000000000000000000000000000000000000000081526004016111a99190611eaf565b60405180910390fd5b80600560008573ffffffffffffffffffffffffffffffffffffffff1673ffffffffffffffffffffffffffffffffffffffff16815260200190815260200160002060008473ffffffffffffffffffffffffffffffffffffffff1673ffffffffffffffffffffffffffffffffffffffff16815260200190815260200160002060006101000a81548160ff0219169083151502179055508173ffffffffffffffffffffffffffffffffffffffff168373ffffffffffffffffffffffffffffffffffffffff167f17307eab39ab6107e8899845ad3d59bd9653f200f220920489ca2b5937696c31836040516112a39190611d3e565b60405180910390a3505050565b60008373ffffffffffffffffffffffffffffffffffffffff163b111561145a578273ffffffffffffffffffffffffffffffffffffffff1663150b7a02868685856040518563ffffffff1660e01b815260040161130f949392919061259b565b6020604051808303816000875af192505050801561134b57506040513d601f19601f8201168201806040525081019061134891906125fc565b60015b6113cf573d806000811461137b576040519150601f19603f3d011682016040523d82523d6000602084013e611380565b606091505b5060008151036113c757836040517f64a0ae920000000000000000000000000000000000000000000000000000000081526004016113be9190611eaf565b60405180910390fd5b805181602001fd5b63150b7a0260e01b7bffffffffffffffffffffffffffffffffffffffffffffffffffffffff1916817bffffffffffffffffffffffffffffffffffffffffffffffffffffffff19161461145857836040517f64a0ae9200000000000000000000000000000000000000000000000000000000815260040161144f9190611eaf565b60405180910390fd5b505b5050505050565b606060405180602001604052806000815250905090565b606061148382610cfb565b50600061148e611461565b905060008151116114ae57604051806020016040528060008152506114d9565b806114b88461188b565b6040516020016114c9929190612401565b6040516020818303038152906040525b915050919050565b6114fb828260405180602001604052806000815250611959565b5050565b8060066000848152602001908152602001600020908161151f91906127d5565b507ff8e1a15aba9398e019f0b49df1a4fde98ee17ae345cb5f6b5e2c27f5033e8ce78260405161154f9190611f98565b60405180910390a15050565b60007f01ffc9a7000000000000000000000000000000000000000000000000000000007bffffffffffffffffffffffffffffffffffffffffffffffffffffffff1916827bffffffffffffffffffffffffffffffffffffffffffffffffffffffff1916149050919050565b60006002600083815260200190815260200160002060009054906101000a900473ffffffffffffffffffffffffffffffffffffffff169050919050565b808061163b5750600073ffffffffffffffffffffffffffffffffffffffff168273ffffffffffffffffffffffffffffffffffffffff1614155b1561176f57600061164b84610cfb565b9050600073ffffffffffffffffffffffffffffffffffffffff168373ffffffffffffffffffffffffffffffffffffffff16141580156116b657508273ffffffffffffffffffffffffffffffffffffffff168173ffffffffffffffffffffffffffffffffffffffff1614155b80156116c957506116c78184610a36565b155b1561170b57826040517fa9fbf51f0000000000000000000000000000000000000000000000000000000081526004016117029190611eaf565b60405180910390fd5b811561176d57838573ffffffffffffffffffffffffffffffffffffffff168273ffffffffffffffffffffffffffffffffffffffff167f8c5be1e5ebec7d5bd14f71427d1e84f3dd0314c0f7b2291e5b200ac8c7c3b92560405160405180910390a45b505b836004600085815260200190815260200160002060006101000a81548173ffffffffffffffffffffffffffffffffffffffff021916908373ffffffffffffffffffffffffffffffffffffffff16021790555050505050565b6117d283838361197d565b61188657600073ffffffffffffffffffffffffffffffffffffffff168373ffffffffffffffffffffffffffffffffffffffff160361184757806040517f7e27328900000000000000000000000000000000000000000000000000000000815260040161183e9190611f98565b60405180910390fd5b81816040517f177e802f00000000000000000000000000000000000000000000000000000000815260040161187d9291906128a7565b60405180910390fd5b505050565b60606000600161189a84611a3e565b01905060008167ffffffffffffffff8111156118b9576118b8612056565b5b6040519080825280601f01601f1916602001820160405280156118eb5781602001600182028036833780820191505090505b509050600082602001820190505b60011561194e578080600190039150507f3031323334353637383961626364656600000000000000000000000000000000600a86061a8153600a8581611942576119416128d0565b5b049450600085036118f9575b819350505050919050565b6119638383611b91565b61197861196e610dc0565b60008585856112b0565b505050565b60008073ffffffffffffffffffffffffffffffffffffffff168373ffffffffffffffffffffffffffffffffffffffff1614158015611a3557508273ffffffffffffffffffffffffffffffffffffffff168473ffffffffffffffffffffffffffffffffffffffff1614806119f657506119f58484610a36565b5b80611a3457508273ffffffffffffffffffffffffffffffffffffffff16611a1c83610d83565b73ffffffffffffffffffffffffffffffffffffffff16145b5b90509392505050565b600080600090507a184f03e93ff9f4daa797ed6e38ed64bf6a1f0100000000000000008310611a9c577a184f03e93ff9f4daa797ed6e38ed64bf6a1f0100000000000000008381611a9257611a916128d0565b5b0492506040810190505b6d04ee2d6d415b85acef81000000008310611ad9576d04ee2d6d415b85acef81000000008381611acf57611ace6128d0565b5b0492506020810190505b662386f26fc100008310611b0857662386f26fc100008381611afe57611afd6128d0565b5b0492506010810190505b6305f5e1008310611b31576305f5e1008381611b2757611b266128d0565b5b0492506008810190505b6127108310611b56576127108381611b4c57611b4b6128d0565b5b0492506004810190505b60648310611b795760648381611b6f57611b6e6128d0565b5b0492506002810190505b600a8310611b88576001810190505b80915050919050565b600073ffffffffffffffffffffffffffffffffffffffff168273ffffffffffffffffffffffffffffffffffffffff1603611c035760006040517f64a0ae92000000000000000000000000000000000000000000000000000000008152600401611bfa9190611eaf565b60405180910390fd5b6000611c1183836000610dda565b9050600073ffffffffffffffffffffffffffffffffffffffff168173ffffffffffffffffffffffffffffffffffffffff1614611c855760006040517f73c6ac6e000000000000000000000000000000000000000000000000000000008152600401611c7c9190611eaf565b60405180910390fd5b505050565b6000604051905090565b600080fd5b600080fd5b60007fffffffff0000000000000000000000000000000000000000000000000000000082169050919050565b611cd381611c9e565b8114611cde57600080fd5b50565b600081359050611cf081611cca565b92915050565b600060208284031215611d0c57611d0b611c94565b5b6000611d1a84828501611ce1565b91505092915050565b60008115159050919050565b611d3881611d23565b82525050565b6000602082019050611d536000830184611d2f565b92915050565b600081519050919050565b600082825260208201905092915050565b60005b83811015611d93578082015181840152602081019050611d78565b60008484015250505050565b6000601f19601f8301169050919050565b6000611dbb82611d59565b611dc58185611d64565b9350611dd5818560208601611d75565b611dde81611d9f565b840191505092915050565b60006020820190508181036000830152611e038184611db0565b905092915050565b6000819050919050565b611e1e81611e0b565b8114611e2957600080fd5b50565b600081359050611e3b81611e15565b92915050565b600060208284031215611e5757611e56611c94565b5b6000611e6584828501611e2c565b91505092915050565b600073ffffffffffffffffffffffffffffffffffffffff82169050919050565b6000611e9982611e6e565b9050919050565b611ea981611e8e565b82525050565b6000602082019050611ec46000830184611ea0565b92915050565b611ed381611e8e565b8114611ede57600080fd5b50565b600081359050611ef081611eca565b92915050565b60008060408385031215611f0d57611f0c611c94565b5b6000611f1b85828601611ee1565b9250506020611f2c85828601611e2c565b9150509250929050565b600080600060608486031215611f4f57611f4e611c94565b5b6000611f5d86828701611ee1565b9350506020611f6e86828701611ee1565b9250506040611f7f86828701611e2c565b9150509250925092565b611f9281611e0b565b82525050565b6000602082019050611fad6000830184611f89565b92915050565b600060208284031215611fc957611fc8611c94565b5b6000611fd784828501611ee1565b91505092915050565b611fe981611d23565b8114611ff457600080fd5b50565b60008135905061200681611fe0565b92915050565b6000806040838503121561202357612022611c94565b5b600061203185828601611ee1565b925050602061204285828601611ff7565b9150509250929050565b600080fd5b600080fd5b7f4e487b7100000000000000000000000000000000000000000000000000000000600052604160045260246000fd5b61208e82611d9f565b810181811067ffffffffffffffff821117156120ad576120ac612056565b5b80604052505050565b60006120c0611c8a565b90506120cc8282612085565b919050565b600067ffffffffffffffff8211156120ec576120eb612056565b5b6120f582611d9f565b9050602081019050919050565b82818337600083830152505050565b600061212461211f846120d1565b6120b6565b9050828152602081018484840111156121405761213f612051565b5b61214b848285612102565b509392505050565b600082601f8301126121685761216761204c565b5b8135612178848260208601612111565b91505092915050565b6000806000806080858703121561219b5761219a611c94565b5b60006121a987828801611ee1565b94505060206121ba87828801611ee1565b93505060406121cb87828801611e2c565b925050606085013567ffffffffffffffff8111156121ec576121eb611c99565b5b6121f887828801612153565b91505092959194509250565b6000806040838503121561221b5761221a611c94565b5b600061222985828601611ee1565b925050602061223a85828601611ee1565b9150509250929050565b600067ffffffffffffffff82111561225f5761225e612056565b5b61226882611d9f565b9050602081019050919050565b600061228861228384612244565b6120b6565b9050828152602081018484840111156122a4576122a3612051565b5b6122af848285612102565b509392505050565b600082601f8301126122cc576122cb61204c565b5b81356122dc848260208601612275565b91505092915050565b6000602082840312156122fb576122fa611c94565b5b600082013567ffffffffffffffff81111561231957612318611c99565b5b612325848285016122b7565b91505092915050565b7f4e487b7100000000000000000000000000000000000000000000000000000000600052602260045260246000fd5b6000600282049050600182168061237557607f821691505b6020821081036123885761238761232e565b5b50919050565b60006060820190506123a36000830186611ea0565b6123b06020830185611f89565b6123bd6040830184611ea0565b949350505050565b600081905092915050565b60006123db82611d59565b6123e581856123c5565b93506123f5818560208601611d75565b80840191505092915050565b600061240d82856123d0565b915061241982846123d0565b91508190509392505050565b7f4e6f7420656e6f7567682045544820746f206d696e74204e4654000000000000600082015250565b600061245b601a83611d64565b915061246682612425565b602082019050919050565b6000602082019050818103600083015261248a8161244e565b9050919050565b7f4e487b7100000000000000000000000000000000000000000000000000000000600052601160045260246000fd5b60006124cb82611e0b565b91507fffffffffffffffffffffffffffffffffffffffffffffffffffffffffffffffff82036124fd576124fc612491565b5b600182019050919050565b600060608201905061251d6000830186611ea0565b61252a6020830185611f89565b818103604083015261253c8184611db0565b9050949350505050565b600081519050919050565b600082825260208201905092915050565b600061256d82612546565b6125778185612551565b9350612587818560208601611d75565b61259081611d9f565b840191505092915050565b60006080820190506125b06000830187611ea0565b6125bd6020830186611ea0565b6125ca6040830185611f89565b81810360608301526125dc8184612562565b905095945050505050565b6000815190506125f681611cca565b92915050565b60006020828403121561261257612611611c94565b5b6000612620848285016125e7565b91505092915050565b60008190508160005260206000209050919050565b60006020601f8301049050919050565b600082821b905092915050565b60006008830261268b7fffffffffffffffffffffffffffffffffffffffffffffffffffffffffffffffff8261264e565b612695868361264e565b95508019841693508086168417925050509392505050565b6000819050919050565b60006126d26126cd6126c884611e0b565b6126ad565b611e0b565b9050919050565b6000819050919050565b6126ec836126b7565b6127006126f8826126d9565b84845461265b565b825550505050565b600090565b612715612708565b6127208184846126e3565b505050565b5b818110156127445761273960008261270d565b600181019050612726565b5050565b601f8211156127895761275a81612629565b6127638461263e565b81016020851015612772578190505b61278661277e8561263e565b830182612725565b50505b505050565b600082821c905092915050565b60006127ac6000198460080261278e565b1980831691505092915050565b60006127c5838361279b565b9150826002028217905092915050565b6127de82611d59565b67ffffffffffffffff8111156127f7576127f6612056565b5b612801825461235d565b61280c828285612748565b600060209050601f83116001811461283f576000841561282d578287015190505b61283785826127b9565b86555061289f565b601f19841661284d86612629565b60005b8281101561287557848901518255600182019150602085019450602081019050612850565b86831015612892578489015161288e601f89168261279b565b8355505b6001600288020188555050505b505050505050565b60006040820190506128bc6000830185611ea0565b6128c96020830184611f89565b9392505050565b7f4e487b7100000000000000000000000000000000000000000000000000000000600052601260045260246000fdfea264697066735822122088f8854eb1e71b515816eb1bac7fce292a20313106f9e828280efe82130cfdd064736f6c63430008140033",
  "linkReferences": {},
  "deployedLinkReferences": {}
}