{
  "_format": "hh-sol-artifact-1",
  "contractName": "HelloWorld",
  "sourceName": "contracts/HelloWorld.sol",
  "abi": [
    {
      "inputs": [],
      "name": "message",
      "outputs": [
        {
          "internalType": "string",
          "name": "",
          "type": "string"
        }
      ],
      "stateMutability": "view",
      "type": "function"
    },
    {
      "inputs": [
        {
          "internalType": "string",
          "name": "_message",
          "type": "string"
        }
      ],
      "name": "setMessage",
      "outputs": [],
      "stateMutability": "nonpayable",
      "type": "function"
    }
  ],
  "bytecode": "0x60806040526040518060400160405280600f81526020017f48656c6c6f2c2048617264686174210000000000000000000000000000000000815250600090816200004a9190620002d9565b503480156200005857600080fd5b50620003c0565b600081519050919050565b7f4e487b7100000000000000000000000000000000000000000000000000000000600052604160045260246000fd5b7f4e487b7100000000000000000000000000000000000000000000000000000000600052602260045260246000fd5b60006002820490506001821680620000e157607f821691505b602082108103620000f757620000f662000099565b5b50919050565b60008190508160005260206000209050919050565b60006020601f8301049050919050565b600082821b905092915050565b600060088302620001617fffffffffffffffffffffffffffffffffffffffffffffffffffffffffffffffff8262000122565b6200016d868362000122565b95508019841693508086168417925050509392505050565b6000819050919050565b6000819050919050565b6000620001ba620001b4620001ae8462000185565b6200018f565b62000185565b9050919050565b6000819050919050565b620001d68362000199565b620001ee620001e582620001c1565b8484546200012f565b825550505050565b600090565b62000205620001f6565b62000212818484620001cb565b505050565b5b818110156200023a576200022e600082620001fb565b60018101905062000218565b5050565b601f82111562000289576200025381620000fd565b6200025e8462000112565b810160208510156200026e578190505b620002866200027d8562000112565b83018262000217565b50505b505050565b600082821c905092915050565b6000620002ae600019846008026200028e565b1980831691505092915050565b6000620002c983836200029b565b9150826002028217905092915050565b620002e4826200005f565b67ffffffffffffffff8111156200030057620002ff6200006a565b5b6200030c8254620000c8565b620003198282856200023e565b600060209050601f8311600181146200035157600084156200033c578287015190505b620003488582620002bb565b865550620003b8565b601f1984166200036186620000fd565b60005b828110156200038b5784890151825560018201915060208501945060208101905062000364565b86831015620003ab5784890151620003a7601f8916826200029b565b8355505b6001600288020188555050505b505050505050565b6105dd80620003d06000396000f3fe608060405234801561001057600080fd5b50600436106100365760003560e01c8063368b87721461003b578063e21f37ce14610057575b600080fd5b61005560048036038101906100509190610188565b610075565b005b61005f61008b565b60405161006c9190610265565b60405180910390f35b8181600091826100869291906104d7565b505050565b60008054610098906102f0565b80601f01602080910402602001604051908101604052809291908181526020018280546100c4906102f0565b80156101115780601f106100e657610100808354040283529160200191610111565b820191906000526020600020905b8154815290600101906020018083116100f457829003601f168201915b505050505081565b600080fd5b600080fd5b600080fd5b600080fd5b600080fd5b60008083601f84011261014857610147610123565b5b8235905067ffffffffffffffff81111561016557610164610128565b5b6020830191508360018202830111156101815761018061012d565b5b9250929050565b6000806020838503121561019f5761019e610119565b5b600083013567ffffffffffffffff8111156101bd576101bc61011e565b5b6101c985828601610132565b92509250509250929050565b600081519050919050565b600082825260208201905092915050565b60005b8381101561020f5780820151818401526020810190506101f4565b60008484015250505050565b6000601f19601f8301169050919050565b6000610237826101d5565b61024181856101e0565b93506102518185602086016101f1565b61025a8161021b565b840191505092915050565b6000602082019050818103600083015261027f818461022c565b905092915050565b600082905092915050565b7f4e487b7100000000000000000000000000000000000000000000000000000000600052604160045260246000fd5b7f4e487b7100000000000000000000000000000000000000000000000000000000600052602260045260246000fd5b6000600282049050600182168061030857607f821691505b60208210810361031b5761031a6102c1565b5b50919050565b60008190508160005260206000209050919050565b60006020601f8301049050919050565b600082821b905092915050565b6000600883026103837fffffffffffffffffffffffffffffffffffffffffffffffffffffffffffffffff82610346565b61038d8683610346565b95508019841693508086168417925050509392505050565b6000819050919050565b6000819050919050565b60006103d46103cf6103ca846103a5565b6103af565b6103a5565b9050919050565b6000819050919050565b6103ee836103b9565b6104026103fa826103db565b848454610353565b825550505050565b600090565b61041761040a565b6104228184846103e5565b505050565b5b818110156104465761043b60008261040f565b600181019050610428565b5050565b601f82111561048b5761045c81610321565b61046584610336565b81016020851015610474578190505b61048861048085610336565b830182610427565b50505b505050565b600082821c905092915050565b60006104ae60001984600802610490565b1980831691505092915050565b60006104c7838361049d565b9150826002028217905092915050565b6104e18383610287565b67ffffffffffffffff8111156104fa576104f9610292565b5b61050482546102f0565b61050f82828561044a565b6000601f83116001811461053e576000841561052c578287013590505b61053685826104bb565b86555061059e565b601f19841661054c86610321565b60005b828110156105745784890135825560018201915060208501945060208101905061054f565b86831015610591578489013561058d601f89168261049d565b8355505b6001600288020188555050505b5050505050505056fea26469706673582212203afb221def3de62aa51cf05d596d626e29a7c5ac0926ac208128c983c92d9cb364736f6c63430008140033",
  "linkReferences": {},
  "deployedLinkReferences": {}
}