{
  "_format": "hh-sol-artifact-1",
  "contractName": "AuctionManager",
  "sourceName": "contracts/AuctionManager.sol",
  "abi": [
    {
      "inputs": [
        {
          "internalType": "address",
          "name": "_platformWallet",
          "type": "address"
        }
      ],
      "stateMutability": "nonpayable",
      "type": "constructor"
    },
    {
      "inputs": [],
      "name": "ReentrancyGuardReentrantCall",
      "type": "error"
    },
    {
      "anonymous": false,
      "inputs": [
        {
          "indexed": true,
          "internalType": "uint256",
          "name": "auctionId",
          "type": "uint256"
        },
        {
          "indexed": true,
          "internalType": "address",
          "name": "seller",
          "type": "address"
        },
        {
          "indexed": true,
          "internalType": "address",
          "name": "nft",
          "type": "address"
        },
        {
          "indexed": false,
          "internalType": "uint256",
          "name": "tokenId",
          "type": "uint256"
        }
      ],
      "name": "AuctionCreated",
      "type": "event"
    },
    {
      "anonymous": false,
      "inputs": [
        {
          "indexed": true,
          "internalType": "uint256",
          "name": "auctionId",
          "type": "uint256"
        },
        {
          "indexed": false,
          "internalType": "address",
          "name": "winner",
          "type": "address"
        },
        {
          "indexed": false,
          "internalType": "uint256",
          "name": "amount",
          "type": "uint256"
        }
      ],
      "name": "AuctionEnded",
      "type": "event"
    },
    {
      "anonymous": false,
      "inputs": [
        {
          "indexed": true,
          "internalType": "uint256",
          "name": "auctionId",
          "type": "uint256"
        },
        {
          "indexed": true,
          "internalType": "address",
          "name": "bidder",
          "type": "address"
        },
        {
          "indexed": false,
          "internalType": "uint256",
          "name": "amount",
          "type": "uint256"
        }
      ],
      "name": "BidPlaced",
      "type": "event"
    },
    {
      "inputs": [],
      "name": "auctionCount",
      "outputs": [
        {
          "internalType": "uint256",
          "name": "",
          "type": "uint256"
        }
      ],
      "stateMutability": "view",
      "type": "function"
    },
    {
      "inputs": [
        {
          "internalType": "uint256",
          "name": "",
          "type": "uint256"
        }
      ],
      "name": "auctions",
      "outputs": [
        {
          "internalType": "address",
          "name": "seller",
          "type": "address"
        },
        {
          "internalType": "address",
          "name": "nft",
          "type": "address"
        },
        {
          "internalType": "uint256",
          "name": "tokenId",
          "type": "uint256"
        },
        {
          "internalType": "uint256",
          "name": "highestBid",
          "type": "uint256"
        },
        {
          "internalType": "address",
          "name": "highestBidder",
          "type": "address"
        },
        {
          "internalType": "uint256",
          "name": "endTime",
          "type": "uint256"
        },
        {
          "internalType": "uint256",
          "name": "startingBid",
          "type": "uint256"
        },
        {
          "internalType": "bool",
          "name": "ended",
          "type": "bool"
        }
      ],
      "stateMutability": "view",
      "type": "function"
    },
    {
      "inputs": [
        {
          "internalType": "uint256",
          "name": "auctionId",
          "type": "uint256"
        }
      ],
      "name": "bid",
      "outputs": [],
      "stateMutability": "payable",
      "type": "function"
    },
    {
      "inputs": [
        {
          "internalType": "address",
          "name": "nft",
          "type": "address"
        },
        {
          "internalType": "uint256",
          "name": "tokenId",
          "type": "uint256"
        },
        {
          "internalType": "uint256",
          "name": "startingBid",
          "type": "uint256"
        },
        {
          "internalType": "uint256",
          "name": "duration",
          "type": "uint256"
        }
      ],
      "name": "createAuction",
      "outputs": [],
      "stateMutability": "nonpayable",
      "type": "function"
    },
    {
      "inputs": [
        {
          "internalType": "uint256",
          "name": "auctionId",
          "type": "uint256"
        }
      ],
      "name": "finalizeAuction",
      "outputs": [],
      "stateMutability": "nonpayable",
      "type": "function"
    },
    {
      "inputs": [
        {
          "internalType": "uint256",
          "name": "",
          "type": "uint256"
        },
        {
          "internalType": "address",
          "name": "",
          "type": "address"
        }
      ],
      "name": "pendingReturns",
      "outputs": [
        {
          "internalType": "uint256",
          "name": "",
          "type": "uint256"
        }
      ],
      "stateMutability": "view",
      "type": "function"
    },
    {
      "inputs": [],
      "name": "platformFee",
      "outputs": [
        {
          "internalType": "uint256",
          "name": "",
          "type": "uint256"
        }
      ],
      "stateMutability": "view",
      "type": "function"
    },
    {
      "inputs": [],
      "name": "platformWallet",
      "outputs": [
        {
          "internalType": "address",
          "name": "",
          "type": "address"
        }
      ],
      "stateMutability": "view",
      "type": "function"
    },
    {
      "inputs": [
        {
          "internalType": "uint256",
          "name": "newFee",
          "type": "uint256"
        }
      ],
      "name": "setPlatformFee",
      "outputs": [],
      "stateMutability": "nonpayable",
      "type": "function"
    },
    {
      "inputs": [
        {
          "internalType": "uint256",
          "name": "auctionId",
          "type": "uint256"
        }
      ],
      "name": "withdraw",
      "outputs": [],
      "stateMutability": "nonpayable",
      "type": "function"
    }
  ],
  "bytecode": "0x608060405260056004553480156200001657600080fd5b5060405162001a0338038062001a0383398181016040528101906200003c9190620000f6565b600160008190555080600560006101000a81548173ffffffffffffffffffffffffffffffffffffffff021916908373ffffffffffffffffffffffffffffffffffffffff1602179055505062000128565b600080fd5b600073ffffffffffffffffffffffffffffffffffffffff82169050919050565b6000620000be8262000091565b9050919050565b620000d081620000b1565b8114620000dc57600080fd5b50565b600081519050620000f081620000c5565b92915050565b6000602082840312156200010f576200010e6200008c565b5b60006200011f84828501620000df565b91505092915050565b6118cb80620001386000396000f3fe6080604052600436106100915760003560e01c8063571a26a011610059578063571a26a01461015a57806361beb1d71461019e5780638ddac1ef146101c7578063e808386314610204578063fa2af9da1461022d57610091565b806312e8e2c31461009657806326232a2e146100bf5780632ad71573146100ea5780632e1a7d4d14610115578063454a2ab31461013e575b600080fd5b3480156100a257600080fd5b506100bd60048036038101906100b89190611026565b610258565b005b3480156100cb57600080fd5b506100d4610336565b6040516100e19190611062565b60405180910390f35b3480156100f657600080fd5b506100ff61033c565b60405161010c9190611062565b60405180910390f35b34801561012157600080fd5b5061013c60048036038101906101379190611026565b610342565b005b61015860048036038101906101539190611026565b61047b565b005b34801561016657600080fd5b50610181600480360381019061017c9190611026565b6106ec565b6040516101959897969594939291906110d9565b60405180910390f35b3480156101aa57600080fd5b506101c560048036038101906101c09190611183565b6107a1565b005b3480156101d357600080fd5b506101ee60048036038101906101e991906111ea565b610a9b565b6040516101fb9190611062565b60405180910390f35b34801561021057600080fd5b5061022b60048036038101906102269190611026565b610ac0565b005b34801561023957600080fd5b50610242610f75565b60405161024f919061122a565b60405180910390f35b600560009054906101000a900473ffffffffffffffffffffffffffffffffffffffff1673ffffffffffffffffffffffffffffffffffffffff163373ffffffffffffffffffffffffffffffffffffffff16146102e8576040517f08c379a00000000000000000000000000000000000000000000000000000000081526004016102df906112a2565b60405180910390fd5b600a81111561032c576040517f08c379a00000000000000000000000000000000000000000000000000000000081526004016103239061130e565b60405180910390fd5b8060048190555050565b60045481565b60015481565b60006003600083815260200190815260200160002060003373ffffffffffffffffffffffffffffffffffffffff1673ffffffffffffffffffffffffffffffffffffffff168152602001908152602001600020549050600081116103da576040517f08c379a00000000000000000000000000000000000000000000000000000000081526004016103d19061137a565b60405180910390fd5b60006003600084815260200190815260200160002060003373ffffffffffffffffffffffffffffffffffffffff1673ffffffffffffffffffffffffffffffffffffffff168152602001908152602001600020819055503373ffffffffffffffffffffffffffffffffffffffff166108fc829081150290604051600060405180830381858888f19350505050158015610476573d6000803e3d6000fd5b505050565b6000600260008381526020019081526020016000209050806005015442106104d8576040517f08c379a00000000000000000000000000000000000000000000000000000000081526004016104cf906113e6565b60405180910390fd5b806006015434101561051f576040517f08c379a000000000000000000000000000000000000000000000000000000000815260040161051690611452565b60405180910390fd5b80600301543411610565576040517f08c379a000000000000000000000000000000000000000000000000000000000815260040161055c906114be565b60405180910390fd5b600073ffffffffffffffffffffffffffffffffffffffff168160040160009054906101000a900473ffffffffffffffffffffffffffffffffffffffff1673ffffffffffffffffffffffffffffffffffffffff161461064d5780600301546003600084815260200190815260200160002060008360040160009054906101000a900473ffffffffffffffffffffffffffffffffffffffff1673ffffffffffffffffffffffffffffffffffffffff1673ffffffffffffffffffffffffffffffffffffffff1681526020019081526020016000206000828254610645919061150d565b925050819055505b348160030181905550338160040160006101000a81548173ffffffffffffffffffffffffffffffffffffffff021916908373ffffffffffffffffffffffffffffffffffffffff1602179055503373ffffffffffffffffffffffffffffffffffffffff16827f0e54eff26401bf69b81b26f60bd85ef47f5d85275c1d268d84f68d6897431c47346040516106e09190611062565b60405180910390a35050565b60026020528060005260406000206000915090508060000160009054906101000a900473ffffffffffffffffffffffffffffffffffffffff16908060010160009054906101000a900473ffffffffffffffffffffffffffffffffffffffff16908060020154908060030154908060040160009054906101000a900473ffffffffffffffffffffffffffffffffffffffff16908060050154908060060154908060070160009054906101000a900460ff16905088565b603c8110156107e5576040517f08c379a00000000000000000000000000000000000000000000000000000000081526004016107dc906115b3565b60405180910390fd5b8373ffffffffffffffffffffffffffffffffffffffff166323b872dd3330866040518463ffffffff1660e01b8152600401610822939291906115d3565b600060405180830381600087803b15801561083c57600080fd5b505af1158015610850573d6000803e3d6000fd5b505050506040518061010001604052803373ffffffffffffffffffffffffffffffffffffffff1681526020018573ffffffffffffffffffffffffffffffffffffffff16815260200184815260200160008152602001600073ffffffffffffffffffffffffffffffffffffffff16815260200182426108ce919061150d565b81526020018381526020016000151581525060026000600154815260200190815260200160002060008201518160000160006101000a81548173ffffffffffffffffffffffffffffffffffffffff021916908373ffffffffffffffffffffffffffffffffffffffff16021790555060208201518160010160006101000a81548173ffffffffffffffffffffffffffffffffffffffff021916908373ffffffffffffffffffffffffffffffffffffffff160217905550604082015181600201556060820151816003015560808201518160040160006101000a81548173ffffffffffffffffffffffffffffffffffffffff021916908373ffffffffffffffffffffffffffffffffffffffff16021790555060a0820151816005015560c0820151816006015560e08201518160070160006101000a81548160ff0219169083151502179055509050508373ffffffffffffffffffffffffffffffffffffffff163373ffffffffffffffffffffffffffffffffffffffff166001547f8777bed2a899ba8843de663a1f6ed1c48d071cc8bde08e2488b59c00c1993f7686604051610a759190611062565b60405180910390a460016000815480929190610a909061160a565b919050555050505050565b6003602052816000526040600020602052806000526040600020600091509150505481565b610ac8610f9b565b60006002600083815260200190815260200160002090508060050154421015610b26576040517f08c379a0000000000000000000000000000000000000000000000000000000008152600401610b1d9061169e565b60405180910390fd5b8060070160009054906101000a900460ff1615610b78576040517f08c379a0000000000000000000000000000000000000000000000000000000008152600401610b6f9061170a565b60405180910390fd5b8060000160009054906101000a900473ffffffffffffffffffffffffffffffffffffffff1673ffffffffffffffffffffffffffffffffffffffff163373ffffffffffffffffffffffffffffffffffffffff1614610c0a576040517f08c379a0000000000000000000000000000000000000000000000000000000008152600401610c0190611776565b60405180910390fd5b60018160070160006101000a81548160ff021916908315150217905550600073ffffffffffffffffffffffffffffffffffffffff168160040160009054906101000a900473ffffffffffffffffffffffffffffffffffffffff1673ffffffffffffffffffffffffffffffffffffffff1614610e4b57600060646004548360030154610c959190611796565b610c9f9190611807565b90506000818360030154610cb39190611838565b90508260010160009054906101000a900473ffffffffffffffffffffffffffffffffffffffff1673ffffffffffffffffffffffffffffffffffffffff166323b872dd308560040160009054906101000a900473ffffffffffffffffffffffffffffffffffffffff1686600201546040518463ffffffff1660e01b8152600401610d3e939291906115d3565b600060405180830381600087803b158015610d5857600080fd5b505af1158015610d6c573d6000803e3d6000fd5b505050508260000160009054906101000a900473ffffffffffffffffffffffffffffffffffffffff1673ffffffffffffffffffffffffffffffffffffffff166108fc829081150290604051600060405180830381858888f19350505050158015610dda573d6000803e3d6000fd5b50600560009054906101000a900473ffffffffffffffffffffffffffffffffffffffff1673ffffffffffffffffffffffffffffffffffffffff166108fc839081150290604051600060405180830381858888f19350505050158015610e43573d6000803e3d6000fd5b505050610f07565b8060010160009054906101000a900473ffffffffffffffffffffffffffffffffffffffff1673ffffffffffffffffffffffffffffffffffffffff166323b872dd308360000160009054906101000a900473ffffffffffffffffffffffffffffffffffffffff1684600201546040518463ffffffff1660e01b8152600401610ed4939291906115d3565b600060405180830381600087803b158015610eee57600080fd5b505af1158015610f02573d6000803e3d6000fd5b505050505b817fd2aa34a4fdbbc6dff6a3e56f46e0f3ae2a31d7785ff3487aa5c95c642acea5018260040160009054906101000a900473ffffffffffffffffffffffffffffffffffffffff168360030154604051610f6192919061186c565b60405180910390a250610f72610fe1565b50565b600560009054906101000a900473ffffffffffffffffffffffffffffffffffffffff1681565b600260005403610fd7576040517f3ee5aeb500000000000000000000000000000000000000000000000000000000815260040160405180910390fd5b6002600081905550565b6001600081905550565b600080fd5b6000819050919050565b61100381610ff0565b811461100e57600080fd5b50565b60008135905061102081610ffa565b92915050565b60006020828403121561103c5761103b610feb565b5b600061104a84828501611011565b91505092915050565b61105c81610ff0565b82525050565b60006020820190506110776000830184611053565b92915050565b600073ffffffffffffffffffffffffffffffffffffffff82169050919050565b60006110a88261107d565b9050919050565b6110b88161109d565b82525050565b60008115159050919050565b6110d3816110be565b82525050565b6000610100820190506110ef600083018b6110af565b6110fc602083018a6110af565b6111096040830189611053565b6111166060830188611053565b61112360808301876110af565b61113060a0830186611053565b61113d60c0830185611053565b61114a60e08301846110ca565b9998505050505050505050565b6111608161109d565b811461116b57600080fd5b50565b60008135905061117d81611157565b92915050565b6000806000806080858703121561119d5761119c610feb565b5b60006111ab8782880161116e565b94505060206111bc87828801611011565b93505060406111cd87828801611011565b92505060606111de87828801611011565b91505092959194509250565b6000806040838503121561120157611200610feb565b5b600061120f85828601611011565b92505060206112208582860161116e565b9150509250929050565b600060208201905061123f60008301846110af565b92915050565b600082825260208201905092915050565b7f4e6f7420617574686f72697a6564000000000000000000000000000000000000600082015250565b600061128c600e83611245565b915061129782611256565b602082019050919050565b600060208201905081810360008301526112bb8161127f565b9050919050565b7f4d61782066656520697320313025000000000000000000000000000000000000600082015250565b60006112f8600e83611245565b9150611303826112c2565b602082019050919050565b60006020820190508181036000830152611327816112eb565b9050919050565b7f4e6f7468696e6720746f20776974686472617700000000000000000000000000600082015250565b6000611364601383611245565b915061136f8261132e565b602082019050919050565b6000602082019050818103600083015261139381611357565b9050919050565b7f41756374696f6e20656e64656400000000000000000000000000000000000000600082015250565b60006113d0600d83611245565b91506113db8261139a565b602082019050919050565b600060208201905081810360008301526113ff816113c3565b9050919050565b7f4269642062656c6f77207374617274696e672070726963650000000000000000600082015250565b600061143c601883611245565b915061144782611406565b602082019050919050565b6000602082019050818103600083015261146b8161142f565b9050919050565b7f42696420746f6f206c6f77000000000000000000000000000000000000000000600082015250565b60006114a8600b83611245565b91506114b382611472565b602082019050919050565b600060208201905081810360008301526114d78161149b565b9050919050565b7f4e487b7100000000000000000000000000000000000000000000000000000000600052601160045260246000fd5b600061151882610ff0565b915061152383610ff0565b925082820190508082111561153b5761153a6114de565b5b92915050565b7f4475726174696f6e206d757374206265206174206c656173742031206d696e7560008201527f7465000000000000000000000000000000000000000000000000000000000000602082015250565b600061159d602283611245565b91506115a882611541565b604082019050919050565b600060208201905081810360008301526115cc81611590565b9050919050565b60006060820190506115e860008301866110af565b6115f560208301856110af565b6116026040830184611053565b949350505050565b600061161582610ff0565b91507fffffffffffffffffffffffffffffffffffffffffffffffffffffffffffffffff8203611647576116466114de565b5b600182019050919050565b7f41756374696f6e206e6f742079657420656e6465640000000000000000000000600082015250565b6000611688601583611245565b915061169382611652565b602082019050919050565b600060208201905081810360008301526116b78161167b565b9050919050565b7f416c72656164792066696e616c697a6564000000000000000000000000000000600082015250565b60006116f4601183611245565b91506116ff826116be565b602082019050919050565b60006020820190508181036000830152611723816116e7565b9050919050565b7f4f6e6c792073656c6c65722063616e2066696e616c697a650000000000000000600082015250565b6000611760601883611245565b915061176b8261172a565b602082019050919050565b6000602082019050818103600083015261178f81611753565b9050919050565b60006117a182610ff0565b91506117ac83610ff0565b92508282026117ba81610ff0565b915082820484148315176117d1576117d06114de565b5b5092915050565b7f4e487b7100000000000000000000000000000000000000000000000000000000600052601260045260246000fd5b600061181282610ff0565b915061181d83610ff0565b92508261182d5761182c6117d8565b5b828204905092915050565b600061184382610ff0565b915061184e83610ff0565b9250828203905081811115611866576118656114de565b5b92915050565b600060408201905061188160008301856110af565b61188e6020830184611053565b939250505056fea26469706673582212209af480b16ce68d6d8b3922d57c1866d432f93f9eed8fcebc6787da7655a1d54564736f6c63430008140033",
  "linkReferences": {},
  "deployedLinkReferences": {}
}